:020000040000FA
:10000000B8040020D90000002D1900009718000046
:1000100000000000000000000000000000000000E0
:10002000000000000000000000000000E1190000D6
:100030000000000000000000AD190000751D000068
:100040009B0600009D0600009F060000A106000020
:100050009906000000000000191E00001D1E00008F
:100060001D19000000000000DF1900000000000062
:100070009D18000000000000111E0000131E00006B
:100080001B19000000000000151E0000171E0000D4
:1000900000000000AB1900008520000019190000C5
:1000A000090600001F190000832000000000000066
:1000B0000B060000A9190000DD19000095060000DC
:1000C0000448854600F07EFA00480047E526000017
:1000D000C046C046B8040020044880470448004792
:1000E000FEE7FEE7FEE7FEE7FEE7FEE7D11D0000C4
:1000F000C100000030B50B4601460020202201243B
:1001000009E00D46D5409D4205D31D469540491B4B
:100110002546954040191546521E002DF1DC30BD94
:1001200010B5202A04DB0846203AD040002110BD3B
:100130000B46D340D0402024A21A914008431946D0
:1001400010BD03460B439B0703D009E008C9121FEB
:1001500008C0042AFAD203E00B780370401C491C43
:10016000521EF9D27047D2B201E00270401C491E03
:10017000FBD270470022F6E710B513460A46044644
:100180001946FFF7F0FF204610BD421C0178401CC5
:100190000029FBD1801A7047024670B54A40D30F40
:1001A000DB0740002DD04A002AD0010E140E0002B9
:1001B00012020919400A520A8418E5010446544300
:1001C000000A120A2E045043A4194219200CC543F8
:1001D000AA18120C0125AD03521C521912047F39C2
:1001E000240400D0521C104301D44000491EC2B266
:1001F0000C06C0092018401C4008802A02D003E0E9
:10020000002070BD40084000002900DA002018439B
:1002100070BD0000F0B51FB488B00B990998002498
:1002200048400999C00F490049080991C0070B9936
:100230000090490049080B9109990898A64608437F
:100240001CD00B990A98084318D009980124400043
:10025000420D4800410D099824050003000B20437E
:1002600009900B980003000B20430B9050181C4979
:100270004018002201901446104605E00020014677
:100280000DB0F0BD032801DA034600E003239C46CD
:10029000C11A0AAE0AE05F0008ADED5B4F00F75BE4
:1002A0007D430027AA187C41491C5B1E6145F2DD95
:1002B000410004AB5A522104120C0A43240C401C86
:1002C0000828DFDB019802900099704601910090A8
:1002D000059B049A0799069800F022F9D0E70000E0
:1002E0000DFCFFFFF0B50C465C4085B0E40FE40761
:1002F00003944C00002664085900944649080246BD
:100300000296224321D062460A431ED06200570D56
:100310004A000E032303550D012402462C492405EF
:10032000781B1B0B360B4018234326436146009075
:100330001C46501AB44103D30098401C009002E0C0
:10034000921800985B41002803DA0020014605B0AE
:10035000F0BD0020012109050746864611E06446EC
:100360001D46141BB54106D36546521BB341744666
:1003700007430C43A646CD07400849082843921876
:100380005B4105460D43EAD11046184313D0604641
:10039000194650407140084306D06046101AB341D8
:1003A00006D20122002306E000220123DB0702E03F
:1003B0000122D2435310009874460105381C614154
:1003C000029C039D0019694100F09DF8BFE7000001
:1003D000FD0300000EB5C217C10F5040CA074018F8
:1003E0000021054B0293019200910A460B4600F052
:1003F00097F803B000BD0000330400004100400244
:100400000122400AD205090E80187F2901DA002056
:100410007047962903DC9622511AC84070479639D6
:100420008840704710B5002904DB0124E4074042EE
:100430008C412146002B04DB1C460123DB07524282
:10044000A3418B4200D1824210BD0000CB0FDB07DD
:10045000490010B5490802460A4307D00A0D07248F
:100460000903E401090B121B002A01DC002010BD66
:10047000C900440F0C43C100E018D205801800F0F9
:1004800001F810BD002904DA401C490001D14008E0
:100490004000704770B40024050C05D110240004FE
:1004A00002D1002921D01124050E01D10002083407
:1004B000050F01D10001241D850F01D18000A41C6E
:1004C000002801DB4000641C002908D020252E1BD9
:1004D0000D46F540A14000D0012129430843010603
:1004E0001B1B000ADB1D02D5002070BC7047DB051A
:1004F000181880180029F8DA401C4900F5D170BCA2
:1005000040084000704710B5002B08DA0024401C5A
:10051000614192185B411A4301D14008400010BD6F
:10052000F0B51FB482B005460C0003D0084601F0B8
:10053000CFFD02E001F0CCFD2030024600902146C4
:10054000284600F051F8049B059A04460F461843CC
:100550001143084314D0184610431BD00098402183
:100560000A1A18460599FFF7DBFD05460E46009A64
:100570000599049800F038F8084305D0012004E0FC
:100580002046394607B0F0BD0020C11705430E4391
:100590002C43374300990E986305401A7905E40A05
:1005A00000220C43FD0A0A3002D500200146E9E78B
:1005B0000105101969410C9C0D9D00196941FFF757
:1005C000A2FFDFE7064C0125064E05E0E36807CCF5
:1005D0002B430C3C98471034B442F7D3FFF774FD1B
:1005E000942A0000B42A000010B5202A04DB01463A
:1005F000203A9140002010BD914020239C1A0346D0
:10060000E3401943904010BD7047704700B58FB06C
:1006100000BF1E488068042108431C4988600846C2
:10062000806804210840019000BF00BF00BF174848
:1006300080680821084315498860084680680821B9
:100640000840019000BF00BF342102A8FFF792FDCF
:100650002020029001200390059000200690099030
:100660000A90049002A90A4800F032F84020029053
:100670000120039005900020069009900A900490B4
:1006800002A9034800F024F80FB000BD00000240AA
:10069000001C0240704770477047704770477047B2
:1006A0007047000070B5044600F060F90646254624
:1006B000681C002802D0054800782D1800BF00F003
:1006C00055F9801BA842FAD370BD0000200000201D
:1006D000F8B50B460024002500950022002131E1E9
:1006E00001258D402C461D6825400095009DA542A2
:1006F0007ED1056901268E40B5430561056A012654
:100700008E40B5430562456A01268E40B543456279
:10071000856A01268E40B5438562856C8F000F2661
:10072000BE40B5438564056801268E40B54305602B
:10073000456BFF268E40B5434563056C01268E4010
:1007400035430564C56B4F000326BE40B543C56302
:100750005D68022D0DD1826C4D07EE0E0F25B54060
:100760001646AE4332464E07F60E1D6BB5402A4381
:1007700082645D68042D08D1826C4D07EE0E0F2552
:10078000B5401646AE43324682645D68032D0DD1F6
:10079000826C4D07EE0E0F25B5401646AE4332462D
:1007A0004D07EE0E0F25B5402A4382645D68002D8B
:1007B00008D102684E07760F0125B5401646AE43B4
:1007C000324602605D68012D0CD102684E07760F3B
:1007D000B5401646AE4332464E07760F0125B5406A
:1007E0002A4302601D69012D14D1856B9E6900E0CA
:1007F0009CE035438563426B4E07760F0125B5407B
:100800001646AE4332464E07760F1D69B5402A4361
:10081000426322E05D69012D16D1426B4E07760FCF
:10082000B5401646AE4332464263826B10261546EB
:10083000B5432A468263426B36011546B5432A46C4
:100840005D692A43426308E0426B4E07760F01253B
:10085000B5401646AE4332464263456BEDB2002DBD
:1008600005D0856B1E6936013543856303E0856BD2
:100870001026B5438563C26B4E000325B54016466E
:10088000AE4332464E009D68B5402A43C26342687B
:1008900003258D401646AE433246DD688D402A431F
:1008A0004260026C01258D401646AE433246DD693A
:1008B0008D402A430264426C01258D401646AE43AA
:1008C00032461D6A8D402A434264012636075D6820
:1008D0003540B54235D1026901258D401646AE43FB
:1008E00032465D6A8D402A430261026A01258D40CD
:1008F0001646AE4332469D6A8D402A430262DD6A47
:10090000002D02D0DD6A012D11D1826A01258D40B2
:100910001646AE4332468262426A01258D40164633
:10092000AE433246DD6A8D402A43426209E0826A64
:1009300001258D401646AE43324601258D402A439F
:100940008262491C082900D2CAE6F8BD0246D36873
:100950000B40002B01D0012000E000207047002A4E
:1009600001D0C16200E001637047000001480068E7
:100970007047000018000020002906D002681268A5
:1009800004231A4303681A6005E00268126804230E
:100990009A4303681A60704730B503460C46022537
:1009A000184600F02CF8002803D01868C0682060B2
:1009B0000125284630BD0168096808229143026874
:1009C0001160704710B50446002C01D1012010BD04
:1009D00003206077002021680860206800684021BB
:1009E000884321680860204600F097F800202062C4
:1009F0006077A07700BF207700BF00BFE7E7014620
:100A00000868006808221040C008704770B50446A6
:100A1000A57F102D03D1204600F07EF802E020468D
:100A200000F086F870BD70B504460025002C01D199
:100A3000012070BD607F002803D12077204600F0A0
:100A40006DF820680068402188432168086000F044
:100A5000A5FA06467D21C900FFF74CFB0546226931
:100A6000D100D200A81AFFF745FB0546A06801286F
:100A70001DD02068006804210843216808602068B0
:100A80008068E1684900084321688860606901283E
:100A900006D02068806801210843216888600CE046
:100AA00020688068400840002168886005E0206870
:100AB000006804218843216808606068002808D025
:100AC000E8B2216848612068006901210843216873
:100AD0000861FF2191312069884206D220680068B0
:100AE000400840002168086005E020680068012196
:100AF0000843216808602068006840210843216895
:100B000008602046FFF757FF002020620220607730
:100B10000120A06100208CE770477047704710B536
:100B200003460C46186844601846FFF744FF10BDA2
:100B300038B50446FF2000900C2000F01DF96946EE
:100B4000204600F0BBF80098A02854D004DC6028B0
:100B500007D080287BD112E0A82850D0B828F9D13E
:100B600068E000204B4908704B49087001204B4950
:100B700008704B49087000204A49087077E04748E0
:100B80000078012815D146480078012811D1206845
:100B900040684549087008460078FF2801DD0020BC
:100BA0000870414800783C49087000203C490870B2
:100BB00020E039480078401CFF2802DD002036493B
:100BC000087021684968CAB233490878411C324B21
:100BD000197036490A54084620300078002801D0A0
:100BE000012000E00020324908702A480078401CAB
:100BF000284908703BE000202849087037E02A485F
:100C00000078284909784018401CFF2804DD00219D
:100C10002046FFF784FF0CE022480578681C214A33
:100C20001070214800782818224A115C2046FFF7EE
:100C300076FF1CE01C4800781A4909784018401CCF
:100C4000FF2805DD00212046FFF769FF0DE00DE0DC
:100C500014480578681C134A107013480078281847
:100C6000144A115C2046FFF75AFF00E000BF00BFA6
:100C7000FF20009001212046FFF77EFE2046FFF76F
:100C80009AFE0C20012181400B4A116000BF00F048
:100C90007FF838BD0E0000200C000020110000205D
:100CA000130000200D00002012000020B4000020DE
:100CB00003000020B301002080E200E0F3B581B022
:100CC00005460026002702240A26FFF74FFE0746A6
:100CD00000BF28460299FFF75FFE0446FFF746FE75
:100CE000C01BB04201D2022CF3D0012C01D1012053
:100CF000FEBD0020FCE700000348006803490978B6
:100D000040180149086070471800002020000020AA
:100D100010B5032000F004F800F02CF8002010BDFE
:100D200070B50446104801787D20C000FFF7E2F955
:100D3000064631460D480068FFF7DCF9054600F02D
:100D4000D3FB002801D0012070BD042C07D221461E
:100D50000020C04300F028F80548046001E00120AD
:100D6000F2E70020F0E7000020000020240000202F
:100D70001C0000207047000000BFC206D20E0121F7
:100D80009140024A116000BF7047000080E100E01E
:100D900000BFC206D20E01219140024A116000BF7D
:100DA0007047000000E100E070B504460D4629469A
:100DB000204600F0BDFD70BD70B50446002502213F
:100DC00020680840022814D1042120680840042823
:100DD00007D169484068000A0002E1680843664993
:100DE000486065480068000A0002A168084362493B
:100DF00008602078C007C00F002853D06068012821
:100E000009D15D48806A012109030840000B0028D0
:100E100023D1012070BD6068022808D15648C06AFD
:100E2000402108408009002817D10120F2E76068BE
:100E3000042809D15048006B012109030840000B28
:100E400000280AD10120E5E74B48406B40210840CB
:100E50008009002801D10120DCE700BF474846494E
:100E60004031086246496068084343494862434844
:100E7000401E41494031086200BFFFF777FD05463B
:100E8000606801280FD107E0FFF770FD401B3D4966
:100E9000884201D90320BDE73748406A0007000FA8
:100EA0000128F1D137E0606802280FD107E0FFF791
:100EB0005DFD401B3349884201D90320AAE72E4833
:100EC000406A0007000F0228F1D124E0606804287E
:100ED0000FD107E0FFF74AFD401B2A49884201D99C
:100EE000032097E72448406A0007000F0428F1D147
:100EF00011E0606808280ED107E0FFF737FD401BBE
:100F00002049884201D9032084E71B48406A000732
:100F1000000F0828F1D1042120680840042807D1D7
:100F200015484068000A0002E16808431249486019
:100F300011480068C0B200280BD000F043F8460802
:100F40000D480068C1B23046FFF7D4F80E4908607A
:100F500003E000F037F80C4908606068042802D00C
:100F60006068082802D10A20084908700320FFF7AA
:100F7000D7FE00204EE70000000002409966AA5507
:100F80000000695A8813000024000020200000207F
:100F900001480068704700002400002010B5084890
:100FA0004068002808D0FFF7F3FF44080448416870
:100FB0002046FFF79FF810BDFFF7EAFFFBE70000B0
:100FC0000000024000210020244A516A0A07120F43
:100FD000012A04D0022A36D0042A39D135E01F4A2A
:100FE000926A1205120D1E4B1B889A4201D11D48B0
:100FF00028E01A4A926A1205120D194B5B889A4230
:1010000001D119481EE0154A926A1205120D144BBF
:101010009B889A4201D1154814E0104A926A120541
:10102000120D0F4BDB889A4201D111480AE00B4A9E
:10103000926A1205120D0A4B1B899A4201D10D4882
:1010400000E00C4807E00A4805E04B20400202E0BF
:101050000120C00300BF00BF704700000000024035
:10106000A000001800366E01408651010024F400F3
:1010700000127A0000093D0070B504460025207872
:10108000C007C00F00282DD0FC48406A0007000FA1
:10109000012828D1F948806A012109030840000B82
:1010A000002804D16068012801D0012070BD00BF74
:1010B000F348F2494031086207214902A06808401C
:1010C00088420AD0A0680840002806D02089000580
:1010D000000DEC494018E9498862E948401EE7499B
:1010E0004031086268E0606800283FD000BFE448F3
:1010F000E2494031086207214902A068084088425D
:101100000AD0A0680840002806D020890005000DFC
:10111000DC494018D9498862D948401ED749403136
:10112000086200BF00BF401C0862D448006AD5496D
:10113000491C0843D1490862D148401ECF4940317B
:10114000086200BFFFF712FC054606E0FFF70EFC41
:10115000401B022801D90320A8E7C848806A012162
:1011600009030840000B0028F0D025E000BFC44868
:10117000C24940310862C148006A40084000C14984
:101180000843BE490862BE48401EBC49403108625F
:1011900000BFFFF7EBFB054606E0FFF7E7FB401B50
:1011A000022801D9032081E7B448806A012109039C
:1011B0000840000B0028F0D10821206808400828CA
:1011C0007DD12069002854D000BFAD49AB4A4032E0
:1011D00011620020A949096BC805C00D6169084367
:1011E000A8490143A54A1163A549491EA34A4032B3
:1011F000116200BF00BF491C116200209F49096BAA
:101200000322920211400846218BC905C90D0843EB
:101210009C490143994A11639949491E974A4032B2
:10122000116200BF00BF481C114608629348006A63
:101230009449091D0843914908629148401E11468E
:10124000086200BFFFF792FB054606E0FFF78EFB42
:10125000401B022801D9032028E78848006B0121A0
:1012600009030840000B0028F0D0012000F0A0FB8B
:1012700025E000BF82488149403108627F48006A0A
:10128000042188437F4908437C4908627C48401E0A
:101290007A494031086200BFFFF768FB054606E067
:1012A000FFF764FB401B022801D90320FEE67348C8
:1012B000006B012109030840000B0028F0D1022136
:1012C00020680840022876D16C48406A0007000F69
:1012D00002280BD16948C06A4021084080090028D3
:1012E00069D0E068002866D10120DFE600BF6448CD
:1012F000624940310862E068022807D15F48006A0D
:101300006049891C08435D49086226E0E0680028BE
:1013100008D15A48006A022188435A49084357496C
:1013200008621AE0E068202807D15448006A55494D
:1013300020310843514908620FE05048006A0221F9
:101340008843504908434D4908620846006A2021F5
:1013500088434C490843494908624948401E474967
:101360004031086200BFE068002812D0FFF7FEFAA3
:10137000054606E0FFF7FAFA401B642801D903206E
:1013800094E63E48C06A4021084080090028F1D018
:1013900011E0FFF7EBFA054606E0FFF7E7FA401B1E
:1013A000642801D9032081E63448C06A40210840FE
:1013B00080090028F1D104212068084004285CD16C
:1013C00000BF2F482D49403108628915E0698842E5
:1013D00006D12A48406B2C490843284948633FE01E
:1013E000E069002817D12548406B01218902884314
:1013F00024490843214948630846406B89158843BE
:10140000204908431D4948630846406B1F4908436B
:101410001A49486324E001214902E06988420ED15B
:101420001648406B491088431649084313494863DE
:101430000846406B164908431049486310E00F48BE
:10144000406BFF21013188430E4908430B49486333
:101450000846406B491588430A49084307494863D1
:101460000748401E05494031086200BFE069002876
:1014700020D0FFF77BFA054614E02EE00000024082
:101480009966AA550000695A0001695A0004695A10
:101490000002695AFFF76AFA401B1149884201D9D4
:1014A000032003E60F48406B4021084080090028D4
:1014B000F0D012E0FFF75AFA054607E0FFF756FAB8
:1014C000401B0749884201D90320EFE50548406BDE
:1014D0004021084080090028F0D10020E6E5000006
:1014E000881300000000024070B504462546681EBF
:1014F0000949884201D901200CE0681E074948616A
:101500000321081F00F014FA002004498861072015
:101510000861002070BD0000FFFFFF0000E000E058
:101520007047F8B5044620680569206806680027FA
:10153000042028400746002F12D1E807C00F0028DA
:101540000ED0F007C00F00280AD0204600F06EFC35
:10155000002804D02046FFF7E3FF00202063F8BDF9
:10156000002F20D004202840002808D0206B042120
:101570000843206320684069084321684861206B64
:1015800000280FD0E807C00F002806D0F007C00FD2
:10159000002802D0204600F049FC2046FFF7C0FF9B
:1015A00000202063DBE702202840002807D002202B
:1015B0003040002803D0204600F0DAFCCFE700BF1F
:1015C000CDE710B50446002C01D1012010BD2D201F
:1015D000005D002805D100212C200155204600F097
:1015E0000FF824212D200155204600F09DFC0020FD
:1015F000206320212D2001552E2001550020E5E7F4
:10160000704710B503462E20C05C202825D1002944
:1016100001D0002A01D1012010BD00BF2C20C05CE8
:10162000012801D10220F7E701242C20C45400BF77
:1016300059621A855A850020186322242E20C4542A
:1016400000BF00242C20C45400BF18680068012487
:1016500020431C6820600020DEE70220DCE7000059
:1016600010B504460C480078F0280FD10A4880785D
:101670000F280BD108484078002801D0012000E055
:10168000002006490870012005490870032202491C
:101690000448FFF7B6FF10BD000000200300002043
:1016A0000400002038000020FEB504460D46164612
:1016B0001F46002001902D20005D20287ED1002DA6
:1016C00001D0002E01D10120FEBD00BF2C20005D05
:1016D000012801D10220F7E701212C20015500BF8C
:1016E0000020206321212D200155FFF73FF90190B3
:1016F0002068006802210843216808602684668407
:1017000050E0608C401E60842069C02835D160693B
:1017100001280CD1206800680821884329782A4ACA
:10172000515CC907090F0843216808600FE0606930
:1017300002280CD120680068082188432978224AB1
:10174000525C01219143C900084321680860287850
:101750006D1C216848600097002202212046019BF1
:1017600000F05EFC002801D00320ADE7206840694E
:10177000022108432168486114E028786D1C216823
:1017800048600097002202212046019B00F048FC9F
:10179000002801D0032097E7206840690221084310
:1017A00021684861608C0028ABD120212D20015593
:1017B00000BF00212C20015500BF00E001E0002007
:1017C00082E7022080E700009429000030B503463C
:1017D0002D20C05C202859D1002901D0002A01D138
:1017E000012030BD00BF2C20C05C012801D10220A7
:1017F000F7E701242C20C45400BFD9611A845A840D
:101800000020186321242D20C45400BF00242C2064
:10181000C45400BF18680068022420431C6820607C
:101820001869C02828D1586901280CD118680068A7
:101830000824A0430C78164D2C5DE407240F2043A8
:101840001C6820600FE0586902280CD118680068F5
:101850000824A0430C780E4D2D5D0124AC43E40018
:1018600020431C6820600878491C1C686060D961AE
:10187000588C401E588407E00878491C1C6860603A
:10188000D961588C401E58840020AAE70220A8E79E
:1018900094290000704700BFFEE7000010B5024821
:1018A000FFF7B4F810BD00009000002082008118FE
:1018B00000BF0A46491E002AFBD17047FFB581B020
:1018C0000D4616461F46002400F096F9019800F0D8
:1018D00001FA00F0D7F9002801D105B0F0BD284683
:1018E00000F0F8F900F0CEF9002800D1F5E7002467
:1018F00009E0305D00F0EEF900F0C4F9002800D1F5
:10190000EBE7601CC4B2BC42F3DB00F09BF90A2099
:10191000FFF7CCFF00BFE0E77047704770477047A4
:1019200010B54B20C00100F05DF810BD70470000FD
:1019300010B5002819DA1A4A03071B0F083B9B0849
:101940009B00D2588307DC0EFF23A3409A438B07EA
:101950001B0E8407E40EA3401A43114B0407240F07
:10196000083CA408A4001A5118E00E4A03231B02E5
:10197000D21883089B00D2588307DC0EFF23A340B4
:101980009A438B071B0E8407E40EA3401A43054BB2
:10199000032424021B198408A4001A5110BD00005E
:1019A0001CED00E000E100E0704770477047000068
:1019B00038B5044608490968C8087D21C900FEF702
:1019C00099FB6043009000BF00BF0098411E00914A
:1019D0000028F9D138BD000024000020704770476E
:1019E0007047000010B58EB00446342101A8FEF700
:1019F000C1FB00BF2748C068022108432549C860D1
:101A00000846C06802210840009000BF00BF00BF28
:101A100020488068042108431E4988600846806881
:101A200004210840009000BF00BF08200190022060
:101A300002900020049005900890099001200390E6
:101A400005200D9001A91448FEF742FE10200190D8
:101A50000220029005200D9001A90F48FEF738FEE4
:101A60000E480F4908600846446001214902816020
:101A7000402101610021416110218161FFF7A1FD39
:101A8000032208490648FFF7BCFD0720FFF780F94D
:101A90000EB010BD000002400018024000040040DB
:101AA000380000200000002001B50A230122694609
:101AB0000148FFF7F9FD08BD3800002010B500F01F
:101AC00053F8002220210C48FEF749FF0022402154
:101AD0000948FEF744FF0A20FFF7E8FE0122202113
:101AE0000548FEF73CFF0A20FFF7E0FE0022202118
:101AF0000148FEF734FF10BD001C024000B58DB058
:101B000000200190402000900120039000200790C9
:101B100004900890029069460248FEF7D9FD0DB086
:101B200000BD0000001C024010B500F01DF80022AE
:101B300020210C48FEF713FF012240210948FEF73F
:101B40000EFF0A20FFF7B2FE012220210548FEF712
:101B500006FF0A20FFF7AAFE002220210148FEF717
:101B6000FEFE10BD001C024000B58DB001200190AA
:101B700040200090012003900020079004900890DE
:101B8000029069460248FEF7A3FD0DB000BD0000BB
:101B9000001C024070B505460026FFF7AFFF0A2083
:101BA000FFF784FE802419E0002220211148FEF76F
:101BB000D6FE0A20FFF77AFE012220210D48FEF70B
:101BC000CEFE0A20FFF772FE40210A48FEF7BEFE55
:101BD000012802D13046204306466410002CE3D190
:101BE000012D02D1FFF76AFF01E0FFF79DFF3046AC
:101BF00070BD0000001C024010B5FFF7B5FF0022C9
:101C000020210F48FEF7ABFE012240210C48FEF7D1
:101C1000A6FE012220210A48FEF7A1FE0A20FFF7B6
:101C200045FE002240210648FEF799FE0A20FFF7F4
:101C30003DFE002220210248FEF791FE10BD00006B
:101C4000001C024010B5FFF78FFF002220210C4836
:101C5000FEF785FE002240210948FEF780FE0122A2
:101C600020210748FEF77BFE0A20FFF71FFE012216
:101C700040210348FEF773FE0A20FFF717FE10BD50
:101C8000001C024010B5FFF76FFF012240211048F1
:101C9000FEF765FEFFF732FF012220210C48FEF718
:101CA0005EFE0A20FFF702FE05E0601CC4B2C82CED
:101CB00001DD002010BD40210548FEF747FE002849
:101CC000F3D1002220210248FEF749FE0120F1E76E
:101CD000001C024070B50546FFF746FF802409E06E
:101CE00028462040002802D000F008F801E000F06B
:101CF00023F86410002CF3D1002070BD10B5002231
:101D000020210C48FEF72BFE012240210948FEF756
:101D100026FE0A20FFF7CAFD012220210548FEF712
:101D20001EFE0A20FFF7C2FD002220210148FEF717
:101D300016FE10BD001C024010B5002220210C48E8
:101D4000FEF70DFE002240210948FEF708FE0A209A
:101D5000FFF7ACFD012220210548FEF700FE0A2016
:101D6000FFF7A4FD002220210148FEF7F8FD10BD79
:101D7000001C024010B5FEF7BFFF10BD00B58DB0CE
:101D8000202105A8FEF7F6F90020019002900390AB
:101D900004900120059006900C480088079005A843
:101DA000FFF76AF9002801D0FEF775FC07200190C3
:101DB0000120029000200390049001A8FEF7FCFF90
:101DC000002801D0FEF767FC0DB000BDA000001890
:101DD0000B480C4908620C480A4940390862084817
:101DE000401E0849086200200649403908604860E2
:101DF000881588600020C8600861044988607047C1
:101E00009966AA55400002400100695A00ED00E0C1
:101E100070477047704770477047000010B5024820
:101E2000FFF77FFB10BD00003800002070B50446AE
:101E30002E20005D222872D12068406901210843CC
:101E4000216848612069C02842D16069002807D113
:101E500020684068C1B2626A501C6062117047E03D
:101E60006069012817D120684068C5B22D48415DDE
:101E700020680068042210408008814204D1626A10
:101E8000501C6062157033E0E0212E2001550220C5
:101E90002063012070BD6069022829D12068406854
:101EA000C5B22048415D20680068042210408208C5
:101EB00001209043814204D1626A501C6062157017
:101EC00016E0E0212E200155022020630120E1E7E9
:101ED0006069002805D0E0212E20015501202063F3
:101EE000D8E720684068C1B2626A501C6062117015
:101EF000608D401E80B2608500280ED12068006889
:101F0000400840002168086020212E20015520460D
:101F1000FFF7A6FB0020BDE701E00020BAE70220A2
:101F2000B8E700009429000070B504462169A06854
:101F30000843A1690843216809682D2212019143D1
:101F4000084321680860FFF729F8A168490A491C7D
:101F500048430546606841012846FEF7CBF8401E1D
:101F600080B20121090440182168886170BD000019
:101F700010B504462D20005D21284CD12068406911
:101F80000221084321684861608C411E6184002859
:101F90000DD120680068022188432168086020462E
:101FA000FFF778FC20212D200155002010BD20696D
:101FB000C02828D1606901280DD120680068082157
:101FC0008843E1690978154A515CC907090F08433C
:101FD0002168086010E0606902280DD1206800685F
:101FE00008218843E16909780C4A525C0121914338
:101FF000C900084321680860E169481CE06108786D
:102000002168486005E0E169481CE06108782168C2
:1020100048600020CAE70220C8E7000094290000B9
:10202000FFB581B004460D4617460A9E1DE0701CA0
:1020300000281AD0002E05D0FEF798FC0499401A0B
:10204000B04212D9206800688008800021680860CA
:1020500020212D2001552E20015500BF00212C20CC
:10206000015500BF032005B0F0BD2068006928407D
:10207000A84201D1012000E00020B842D7D00020C2
:10208000F1E77047704700000FB410B503A9044B87
:10209000044A029800F050F810BC08BC04B018477D
:1020A000A7250000280000200FB410B504A9074B95
:1020B00002AA039800F040F8044602A9002000F0AC
:1020C00021F9204610BC08BC04B0184705230000C5
:1020D0002021020C01D010211046020A01D0104626
:1020E0000839020901D01046091F820801D01046A4
:1020F000891E420801D0881E7047081A704730B404
:102100007446641E2578641CAB4204D3635D5B0097
:10211000E31830BC18471D46F8E702E008C8121F54
:1021200008C1002AFAD170477047002001E001C1C0
:10213000121F002AFBD17047FFB58DB00F46054630
:10214000002606E025280AD0109A0F9990476D1CAA
:10215000761C28780028F5D1304611B0F0BD002457
:102160000121674A009400E004436D1C2B78084667
:10217000203B98401042F7D128782E2815D1042012
:10218000044368786D1C2A280AD101CF6D1C009089
:102190000BE000990A225143303940186D1C009021
:1021A0002878014630390929F3D92878692843D09D
:1021B00006DC0028D0D063280BD0642804D13BE093
:1021C00073280FD075284CD0109A0F999047761C21
:1021D00094E03878694608720020487202A801909D
:1021E000012003E0386801900020C0433F1D6107D3
:1021F0000CD5002400E0641C00998C420FDA844264
:10220000F9DB0199095D0029F5D108E0002400E01F
:10221000641C8442FCDB0199095D0029F8D1361960
:1022200007E0019801990078491C0191109A0F99D3
:102230009047641EF5D261E00A20019001CF00288A
:1022400002DA40422D2102E0210504D52B216A4605
:102250001172012103E0E10701D02021F7E70C9181
:1022600004E00A20019001CF00210C910BA90B91F1
:1022700008E00199FDF73EFF0A460B993032491EEE
:102280000B910A700028F4D10B9803A9081A20308A
:102290000190600701D5009801E0012000900199AC
:1022A000884203DD01460198081A00E0002000245E
:1022B000009006E002A8109A005D0F999047641CF8
:1022C000761C0C988442F5DB04E0109A30200F99BC
:1022D0009047761C0099481E00900029F5DC08E024
:1022E0000B980B990078491C0B91109A0F99904705
:1022F000761C0199481E01900029F1DC6D1C28E72D
:10230000092801000A68531C0B6010707047F8B56B
:102310000BAC70CC68460570467002236A462146B5
:102320009020FFF7CBFAF8BD0FB4F0B591B0209F25
:10233000182216A908A8FDF704FF1C980E9018A8EB
:10234000017D08A8017718A8417D08A8417718A841
:10235000817D08A881771E98109021991F981422DA
:102360000697079105900CA96846FDF7EAFE08A8B4
:102370000FC8FFF7CCFF0A20FEF794F9182216A920
:1023800008A8FDF7DEFE1C980E9018A8017D08A88D
:10239000017718A8417D08A8417718A8817D08A871
:1023A00081771E98109014220CA96846FDF7C9FE8B
:1023B00008A80FC800F0C0F806465248864201D16E
:1023C000012000E000204F4949428E4201D1012105
:1023D00000E000210843002807D000264A48007882
:1023E000012802D149A0FFF74FFE0E2038404010CF
:1023F0000300FFF784FE0604162840526476304638
:10240000FDF7E8FF0022434B0D910C90FDF76AFFAA
:102410000022414B0F910E90FDF764FF04460D46DC
:102420005FE03046FDF7D6FF00223C4B0D910C904B
:10243000FDF7F0FE0022384B0F910E90FDF752FF92
:1024400004460D464DE03046FDF7C4FF0022344BF4
:102450000B910A90FDF7DEFE0022324B0D910C909D
:10246000FDF740FF0022304B0F910E90FDF7D2FE9A
:1024700004460D4635E03046FDF7ACFF00222B4BFD
:102480000D910C90FDF7C6FE0022234B0F910E908C
:10249000FDF728FF04460D4623E03046FDF79AFF7E
:1024A0000022234B0D910C90FDF7B4FE00221A4B35
:1024B0000F910E90FDF716FF04460D4611E03046D1
:1024C000FDF788FF00221B4B0D910C90FDF7A2FE3B
:1024D0000022114B0F910E90FDF704FF04460D46AC
:1024E00000BF00BF0022134620462946FDF79AFF91
:1024F00001D8002425462046294611B0F0BC08BC6E
:1025000004B01847FF7F00000B0000206F76657253
:10251000210D0A000070674080842E4100405F401A
:1025200000404F4000408F400000144000403F40BA
:1025300000402F4000401F4038B500200090FFF7BA
:102540005BFB9020FFF7C6FBFFF79CFB002800D148
:1025500038BD0020FFF7BEFBFFF794FB002800D139
:10256000F6E7FFF76FFBFFF747FB9120FFF7B2FBA2
:10257000FFF788FB002800D1EAE70120FFF70AFBFC
:10258000694608700020FFF705FB01466846417068
:10259000FFF758FB68460078010268464078081843
:1025A00004B22046D4E770B504460D46E0B2FFF70A
:1025B0007BFA002070BD10B501210C20FEF7F4FB62
:1025C0000C20FEF7E5FB10BD00B58DB03421684648
:1025D000FDF7D0FD082000900220019004200C900F
:1025E0000120039000200490079008900290694613
:1025F0001A48FEF76DF81020009002200190042088
:102600000C90012003900020049007900890029005
:1026100069461248FEF75CF811481249086000202C
:10262000486000210F48816020200E4988770E48BD
:102630000078482108430D490978490008430949B1
:10264000C86001210748416109490161002005492D
:1026500048770846FEF7E7F90DB000BD00180240C4
:10266000000C004090000020060000200700002021
:1026700000093D0000B58FB000BF174880680121F8
:1026800008431549886008468068C007C00F01905C
:1026900000BF00BF00BF08468068022108430E4902
:1026A00088600846806802210840019000BF00BF92
:1026B0003020029000200390012006900020099015
:1026C00002A90648FEF704F80820029002A904486F
:1026D000FDF7FEFF0FB000BD0000024000140240F5
:1026E0000010024092B0FEF713FBFFF747FB00BF5C
:1026F00095488068042108439349886008468068AB
:1027000004210840119000BF00BF00BF8E48C06880
:1027100008438D49C8600846C068042108401190EC
:1027200000BF00BFFFF7A6FFFDF770FF0BE1874872
:10273000007887490870874800788749087087487B
:1027400000788749087020218648FEF7FFF80028A6
:1027500003D000207D49087002E001207B49087009
:1027600010218048FEF7F2F8002803D000207949B4
:10277000087002E0012077490870774800787549B1
:102780000978884205D172480078704909788842F2
:102790001AD07548FEF716F900BF6B48C0680421CF
:1027A00008436949C8600846C06804210840119080
:1027B00000BF00BFFFF708FFFFF7FDFE0A20FDF78F
:1027C00071FF00206549087008216848FEF7BEF8CF
:1027D000002803D001206149087002E000205F4911
:1027E00008705F4800785D49097888420ED05B48E0
:1027F0000078012802D1FFF793F807E057480078E6
:10280000002803D1FFF7E0FEFFF7D5FE5848007817
:1028100000282AD01822574909A8FDF792FC5548EC
:1028200080690F905348017F10A801705148417F83
:1028300010A841704F48817F10A881704D48006AF0
:1028400011908320E4210122059206910790142221
:102850000DA96846FDF775FC09A80FC8FFF764FDD0
:102860000546FDF7F3FD074629E01822414909A86E
:10287000FDF767FC3F4880690F903E48017F10A834
:1028800001703C48417F10A841703A48817F10A8F0
:1028900081703848006A11908320D421012205926A
:1028A0000691079014220DA96846FDF74AFC09A875
:1028B0000FC8FFF739FD0546FDF7C8FD07462E494D
:1028C0003846FDF769FC0546FDF798FD04462348A8
:1028D0000078012815D129480078012811D1224615
:1028E00027A12948FFF7E0FB2748FDF74EFC85B2FA
:1028F0002A4625492548FEF769FF00201F49087030
:102900001EE01648007800281AD12002010E204847
:1029100041742004010E1E488174C47400250CE02B
:102920000A212046FDF7E6FB0446002C04D1681C72
:10293000C1B21748017402E06D1C062DF0DB00BF28
:102940006420FDF7AFFEF2E6000002400700002021
:102950000900002006000020080000200B000020D5
:102960000A000020001402409000002000100240E5
:10297000030000206C0000200000C842040000207A
:1029800025640D0A000000002C0000203800002003
:10299000D30100200001010001000001010000013D
:1029A000000101000100000100010100000101001F
:1029B000010000010100000100010100000101000F
:1029C00001000001000101000100000101000001FF
:1029D00000010100010000010001010000010100EF
:1029E00001000001000101000100000101000001DF
:1029F00000010100000101000100000101000001CF
:102A000000010100010000010001010000010100BE
:102A100001000001010000010001010000010100AE
:102A2000010000010001010001000001010000019E
:102A3000000101000001010001000001010000018E
:102A4000000101000100000100010100000101007E
:102A5000010000010001010001000001010000016E
:102A6000000101000100000100010100000101005E
:102A7000010000010100000100010100000101004E
:102A8000010000010001010001000001010000013E
:102A900000010100B42A0000000000202C0000000A
:102AA0001A210000E02A00002C0000208C04000005
:102AB0002A210000000000000000000000000002C9
:102AC0000000000000000000000000000000000006
:102AD000040000000100000000093D0000000000AB
:04000005000000C136
:00000001FF
