:020000040000FA
:10000000A8040020D90000000D1900007718000096
:1000100000000000000000000000000000000000E0
:10002000000000000000000000000000C1190000F6
:1000300000000000000000008D190000551D0000A8
:100040008B0600008D0600008F0600009106000060
:100050008906000000000000F91D0000FD1D0000E1
:10006000FD18000000000000BF19000000000000A3
:100070007D18000000000000F11D0000F31D0000CD
:10008000FB18000000000000F51D0000F71D000037
:10009000000000008B19000065200000F918000026
:1000A000F9050000FF1800006320000000000000B8
:1000B000FB05000089190000BD190000850600003D
:1000C0000448854600F076FA00480047992500006C
:1000D000C046C046A80400200448804704480047A2
:1000E000FEE7FEE7FEE7FEE7FEE7FEE7B11D0000E4
:1000F000C100000030B50B4601460020202201243B
:1001000009E00D46D5409D4205D31D469540491B4B
:100110002546954040191546521E002DF1DC30BD94
:1001200010B5202A04DB0846203AD040002110BD3B
:100130000B46D340D0402024A21A914008431946D0
:1001400010BD03460B439B0703D009E008C9121FEB
:1001500008C0042AFAD203E00B780370401C491C43
:10016000521EF9D27047D2B201E00270401C491E03
:10017000FBD270470022F6E710B513460A46044644
:100180001946FFF7F0FF204610BD024670B54A4001
:10019000D30FDB0740002DD04A002AD0010E140EE9
:1001A000000212020919400A520A8418E5010446A5
:1001B0005443000A120A2E045043A4194219200C79
:1001C000C543AA18120C0125AD03521C5219120482
:1001D0007F39240400D0521C104301D44000491E32
:1001E000C2B20C06C0092018401C4008802A02D068
:1001F00003E0002070BD40084000002900DA002024
:10020000184370BDF0B51FB488B00B99099800244D
:1002100048400999C00F490049080991C0070B9946
:100220000090490049080B9109990898A64608438F
:100230001CD00B990A98084318D009980124400053
:10024000420D4800410D099824050003000B20438E
:1002500009900B980003000B20430B9050181C4989
:100260004018002201901446104605E00020014687
:100270000DB0F0BD032801DA034600E003239C46DD
:10028000C11A0AAE0AE05F0008ADED5B4F00F75BF4
:100290007D430027AA187C41491C5B1E6145F2DDA5
:1002A000410004AB5A522104120C0A43240C401C96
:1002B0000828DFDB019802900099704601910090B8
:1002C000059B049A0799069800F022F9D0E70000F0
:1002D0000DFCFFFFF0B50C465C4085B0E40FE40771
:1002E00003944C00002664085900944649080246CD
:1002F0000296224321D062460A431ED06200570D67
:100300004A000E032303550D012402462C492405FF
:10031000781B1B0B360B4018234326436146009085
:100320001C46501AB44103D30098401C009002E0D0
:10033000921800985B41002803DA0020014605B0BE
:10034000F0BD0020012109050746864611E06446FC
:100350001D46141BB54106D36546521BB341744676
:1003600007430C43A646CD07400849082843921886
:100370005B4105460D43EAD11046184313D0604651
:10038000194650407140084306D06046101AB341E8
:1003900006D20122002306E000220123DB0702E04F
:1003A0000122D2435310009874460105381C614164
:1003B000029C039D0019694100F09DF8BFE7000011
:1003C000FD0300000EB5C217C10F5040CA07401808
:1003D0000021054B0293019200910A460B4600F062
:1003E00097F803B000BD0000330400004100400254
:1003F0000122400AD205090E80187F2901DA002067
:100400007047962903DC9622511AC84070479639E6
:100410008840704710B5002904DB0124E4074042FE
:100420008C412146002B04DB1C460123DB07524292
:10043000A3418B4200D1824210BD0000CB0FDB07ED
:10044000490010B5490802460A4307D00A0D07249F
:100450000903E401090B121B002A01DC002010BD76
:10046000C900440F0C43C100E018D205801800F009
:1004700001F810BD002904DA401C490001D14008F0
:100480004000704770B40024050C05D1102400040E
:1004900002D1002921D01124050E01D10002083417
:1004A000050F01D10001241D850F01D18000A41C7E
:1004B000002801DB4000641C002908D020252E1BE9
:1004C0000D46F540A14000D0012129430843010613
:1004D0001B1B000ADB1D02D5002070BC7047DB052A
:1004E000181880180029F8DA401C4900F5D170BCB2
:1004F00040084000704710B5002B08DA0024401C6B
:10050000614192185B411A4301D14008400010BD7F
:10051000F0B51FB482B005460C0003D0084601F0C8
:10052000B3FD02E001F0B0FD20300246009021460C
:10053000284600F051F8049B059A04460F461843DC
:100540001143084314D0184610431BD00098402193
:100550000A1A18460599FFF7E3FD05460E46009A6C
:100560000599049800F038F8084305D0012004E00C
:100570002046394607B0F0BD0020C11705430E43A1
:100580002C43374300990E986305401A7905E40A15
:1005900000220C43FD0A0A3002D500200146E9E79B
:1005A0000105101969410C9C0D9D00196941FFF767
:1005B000A2FFDFE7064C0125064E05E0E36807CC05
:1005C0002B430C3C98471034B442F7D3FFF77CFD23
:1005D000402900006029000010B5202A04DB0146F4
:1005E000203A9140002010BD914020239C1A0346E0
:1005F000E3401943904010BD7047704700B58FB07D
:1006000000BF1E488068042108431C4988600846D2
:10061000806804210840019000BF00BF00BF174858
:1006200080680821084315498860084680680821C9
:100630000840019000BF00BF342102A8FFF79AFDD7
:100640002020029001200390059000200690099040
:100650000A90049002A90A4800F032F84020029063
:100660000120039005900020069009900A900490C4
:1006700002A9034800F024F80FB000BD00000240BA
:10068000001C0240704770477047704770477047C2
:100690007047000070B5044600F060F90646254634
:1006A000681C002802D0054800782D1800BF00F013
:1006B00055F9801BA842FAD370BD0000200000202D
:1006C000F8B50B460024002500950022002131E1F9
:1006D00001258D402C461D6825400095009DA542B2
:1006E0007ED1056901268E40B5430561056A012664
:1006F0008E40B5430562456A01268E40B54345628A
:10070000856A01268E40B5438562856C8F000F2671
:10071000BE40B5438564056801268E40B54305603B
:10072000456BFF268E40B5434563056C01268E4020
:1007300035430564C56B4F000326BE40B543C56312
:100740005D68022D0DD1826C4D07EE0E0F25B54070
:100750001646AE4332464E07F60E1D6BB5402A4391
:1007600082645D68042D08D1826C4D07EE0E0F2562
:10077000B5401646AE43324682645D68032D0DD106
:10078000826C4D07EE0E0F25B5401646AE4332463D
:100790004D07EE0E0F25B5402A4382645D68002D9B
:1007A00008D102684E07760F0125B5401646AE43C4
:1007B000324602605D68012D0CD102684E07760F4B
:1007C000B5401646AE4332464E07760F0125B5407A
:1007D0002A4302601D69012D14D1856B9E6900E0DA
:1007E0009CE035438563426B4E07760F0125B5408B
:1007F0001646AE4332464E07760F1D69B5402A4372
:10080000426322E05D69012D16D1426B4E07760FDF
:10081000B5401646AE4332464263826B10261546FB
:10082000B5432A468263426B36011546B5432A46D4
:100830005D692A43426308E0426B4E07760F01254B
:10084000B5401646AE4332464263456BEDB2002DCD
:1008500005D0856B1E6936013543856303E0856BE2
:100860001026B5438563C26B4E000325B54016467E
:10087000AE4332464E009D68B5402A43C26342688B
:1008800003258D401646AE433246DD688D402A432F
:100890004260026C01258D401646AE433246DD694A
:1008A0008D402A430264426C01258D401646AE43BA
:1008B00032461D6A8D402A434264012636075D6830
:1008C0003540B54235D1026901258D401646AE430B
:1008D00032465D6A8D402A430261026A01258D40DD
:1008E0001646AE4332469D6A8D402A430262DD6A57
:1008F000002D02D0DD6A012D11D1826A01258D40C3
:100900001646AE4332468262426A01258D40164643
:10091000AE433246DD6A8D402A43426209E0826A74
:1009200001258D401646AE43324601258D402A43AF
:100930008262491C082900D2CAE6F8BD0246D36883
:100940000B40002B01D0012000E000207047002A5E
:1009500001D0C16200E001637047000001480068F7
:100960007047000018000020002906D002681268B5
:1009700004231A4303681A6005E00268126804231E
:100980009A4303681A60704730B503460C46022547
:10099000184600F02CF8002803D01868C0682060C2
:1009A0000125284630BD0168096808229143026884
:1009B0001160704710B50446002C01D1012010BD14
:1009C00003206077002021680860206800684021CB
:1009D000884321680860204600F097F800202062D4
:1009E0006077A07700BF207700BF00BFE7E7014630
:1009F0000868006808221040C008704770B50446B7
:100A0000A57F102D03D1204600F07EF802E020469D
:100A100000F086F870BD70B504460025002C01D1A9
:100A2000012070BD607F002803D12077204600F0B0
:100A30006DF820680068402188432168086000F054
:100A4000A1FA06467D21C900FFF754FB054622693D
:100A5000D100D200A81AFFF74DFB0546A068012877
:100A60001DD02068006804210843216808602068C0
:100A70008068E1684900084321688860606901284E
:100A800006D02068806801210843216888600CE056
:100A900020688068400840002168886005E0206880
:100AA000006804218843216808606068002808D035
:100AB000E8B2216848612068006901210843216883
:100AC0000861FF2191312069884206D220680068C0
:100AD000400840002168086005E0206800680121A6
:100AE00008432168086020680068402108432168A5
:100AF00008602046FFF757FF002020620220607741
:100B00000120A06100208CE770477047704710B546
:100B100003460C46186844601846FFF744FF10BDB2
:100B200038B50446FF2000900C2000F019F9694602
:100B3000204600F0B7F80098A0284FD004DC6028C9
:100B400007D0802876D112E0A8284BD0B828F9D158
:100B500063E000204949087049490870012049496B
:100B600008704949087000204849087072E04548FB
:100B70000078012815D144480078012811D1206857
:100B800040684349087008460078FF2801DD0020CE
:100B900008703F4800783A49087000203A490870C8
:100BA0001BE037480078401CFF2802DD0020344954
:100BB000087021684968CAB231490878411C304B35
:100BC000197034490A5408462030007832490870B8
:100BD0002A480078401C294908703BE00020294938
:100BE000087037E02A480078284909784018401CE6
:100BF000FF2804DD00212046FFF789FF0CE0234891
:100C00000578681C214A1070214800782818234A6A
:100C1000115C2046FFF77BFF1CE01D4800781B4954
:100C200009784018401CFF2805DD00212046FFF709
:100C30006EFF0DE00DE015480578681C134A107032
:100C4000134800782818154A115C2046FFF75FFF0B
:100C500000E000BF00BFFF20009001212046FFF709
:100C600083FE2046FFF79FFE0C20012181400C4AA5
:100C7000116000BF00F080F838BD000011000020B6
:100C80000F0000201400002016000020100000209B
:100C900015000020A800002006000020A701002069
:100CA00080E200E0F3B581B005460026002702246B
:100CB0000A26FFF753FE074600BF28460299FFF7B2
:100CC00063FE0446FFF74AFEC01BB04201D2022C6D
:100CD000F3D0012C01D10120FEBD0020FCE7000073
:100CE00003480068034909784018014908607047C3
:100CF000180000202000002010B5032000F004F8A8
:100D000000F02CF8002010BD70B5044610480178A2
:100D10007D20C000FFF7EEF9064631460D48006819
:100D2000FFF7E8F9054600F0D3FB002801D00120C9
:100D300070BD042C07D221460020C04300F028F8E3
:100D40000548046001E00120F2E70020F0E7000020
:100D500020000020240000201C000020704700001C
:100D600000BFC206D20E01219140024A116000BFAD
:100D70007047000080E100E000BFC206D20E0121F2
:100D80009140024A116000BF7047000000E100E09E
:100D900070B504460D462946204600F0B9FD70BDE9
:100DA00070B504460025022120680840022814D1AD
:100DB000042120680840042807D169484068000AD7
:100DC0000002E16808436649486065480068000A17
:100DD0000002A1680843624908602078C007C00F7C
:100DE000002853D06068012809D15D48806A01213C
:100DF00009030840000B002823D1012070BD606862
:100E0000022808D15648C06A4021084080090028BD
:100E100017D10120F2E76068042809D15048006B1F
:100E2000012109030840000B00280AD10120E5E751
:100E30004B48406B402108408009002801D1012027
:100E4000DCE700BF474846494031086246496068D0
:100E50000843434948624348401E414940310862C3
:100E600000BFFFF77BFD0546606801280FD107E052
:100E7000FFF774FD401B3D49884201D90320BDE7BF
:100E80003748406A0007000F0128F1D137E0606859
:100E900002280FD107E0FFF761FD401B334988426C
:100EA00001D90320AAE72E48406A0007000F022854
:100EB000F1D124E0606804280FD107E0FFF74EFD70
:100EC000401B2A49884201D9032097E72448406AF9
:100ED0000007000F0428F1D111E0606808280ED146
:100EE00007E0FFF73BFD401B2049884201D9032062
:100EF00084E71B48406A0007000F0828F1D104214D
:100F000020680840042807D115484068000A0002FC
:100F1000E16808431249486011480068C0B20028DF
:100F20000BD000F043F846080D480068C1B23046C7
:100F3000FFF7E0F80E49086003E000F037F80C49CD
:100F400008606068042802D06068082802D10A207E
:100F5000084908700320FFF7D7FE00204EE7000085
:100F6000000002409966AA550000695A88130000E3
:100F70002400002020000020014800687047000085
:100F80002400002010B508484068002808D0FFF76A
:100F9000F3FF4408044841682046FFF7ABF810BD52
:100FA000FFF7EAFFFBE700000000024000210020FD
:100FB000244A516A0A07120F012A04D0022A36D0A5
:100FC000042A39D135E01F4A926A1205120D1E4BD0
:100FD0001B889A4201D11D4828E01A4A926A1205DC
:100FE000120D194B5B889A4201D119481EE0154A2F
:100FF000926A1205120D144B9B889A4201D1154832
:1010000014E0104A926A1205120D0F4BDB889A42C7
:1010100001D111480AE00B4A926A1205120D0A4BDF
:101020001B899A4201D10D4800E00C4807E00A48AC
:1010300005E04B20400202E00120C00300BF00BFDA
:101040007047000000000240A000001800366E014A
:10105000408651010024F40000127A0000093D008E
:1010600070B5044600252078C007C00F00282DD099
:10107000FC48406A0007000F012828D1F948806A1F
:10108000012109030840000B002804D160680128F1
:1010900001D0012070BD00BFF348F2494031086221
:1010A00007214902A068084088420AD0A068084089
:1010B000002806D020890005000DEC494018E949B8
:1010C0008862E948401EE7494031086268E060688C
:1010D00000283FD000BFE448E249403108620721C0
:1010E0004902A068084088420AD0A0680840002849
:1010F00006D020890005000DDC494018D9498862D6
:10110000D948401ED7494031086200BF00BF401C8B
:101110000862D448006AD549491C0843D14908628D
:10112000D148401ECF494031086200BFFFF716FC8E
:10113000054606E0FFF712FC401B022801D90320F8
:10114000A8E7C848806A012109030840000B00286D
:10115000F0D025E000BFC448C24940310862C14810
:10116000006A40084000C1490843BE490862BE48C1
:10117000401EBC494031086200BFFFF7EFFB054647
:1011800006E0FFF7EBFB401B022801D9032081E7B3
:10119000B448806A012109030840000B0028F0D1FF
:1011A00008212068084008287DD12069002854D0F3
:1011B00000BFAD49AB4A403211620020A949096B1A
:1011C000C805C00D61690843A8490143A54A1163D8
:1011D000A549491EA34A4032116200BF00BF491C05
:1011E000116200209F49096B0322920211400846B8
:1011F000218BC905C90D08439C490143994A1163D4
:101200009949491E974A4032116200BF00BF481CED
:10121000114608629348006A9449091D08439149A0
:1012200008629148401E1146086200BFFFF796FB16
:10123000054606E0FFF792FB401B022801D9032078
:1012400028E78848006B012109030840000B0028AB
:10125000F0D0012000F09CFB25E000BF82488149CE
:10126000403108627F48006A042188437F4908436F
:101270007C4908627C48401E7A494031086200BFC0
:10128000FFF76CFB054606E0FFF768FB401B0228F2
:1012900001D90320FEE67348006B012109030840D1
:1012A000000B0028F0D1022120680840022876D1E6
:1012B0006C48406A0007000F02280BD16948C06AD9
:1012C000402108408009002869D0E068002866D1E4
:1012D0000120DFE600BF6448624940310862E068EF
:1012E000022807D15F48006A6049891C08435D49AC
:1012F000086226E0E068002808D15A48006A022106
:1013000088435A490843574908621AE0E068202890
:1013100007D15448006A55492031084351490862B1
:101320000FE05048006A02218843504908434D4964
:1013300008620846006A202188434C49084349490D
:1013400008624948401E47494031086200BFE068D2
:10135000002812D0FFF702FB054606E0FFF7FEFA71
:10136000401B642801D9032094E63E48C06A40210E
:10137000084080090028F1D011E0FFF7EFFA054698
:1013800006E0FFF7EBFA401B642801D9032081E651
:101390003448C06A4021084080090028F1D1042166
:1013A0002068084004285CD100BF2F482D494031F7
:1013B00008628915E069884206D12A48406B2C49A9
:1013C0000843284948633FE0E069002817D12548D1
:1013D000406B01218902884324490843214948631D
:1013E0000846406B89158843204908431D494863D6
:1013F0000846406B1F4908431A49486324E001210D
:101400004902E06988420ED11648406B4910884372
:1014100016490843134948630846406B1649084378
:101420001049486310E00F48406BFF2101318843A9
:101430000E4908430B4948630846406B49158843E9
:101440000A490843074948630748401E0549403197
:10145000086200BFE069002820D0FFF77FFA054648
:1014600014E02EE0000002409966AA550000695A77
:101470000001695A0004695A0002695AFFF76EFABE
:10148000401B1149884201D9032003E60F48406BF5
:101490004021084080090028F0D012E0FFF75EFAF2
:1014A000054607E0FFF75AFA401B0749884201D971
:1014B0000320EFE50548406B4021084080090028E3
:1014C000F0D10020E6E50000881300000000024093
:1014D00070B504462546681E0949884201D9012095
:1014E0000CE0681E074948610321081F00F010FA4C
:1014F00000200449886107200861002070BD0000B9
:10150000FFFFFF0000E000E07047F8B504462068E8
:101510000569206806680027042028400746002F38
:1015200012D1E807C00F00280ED0F007C00F002826
:101530000AD0204600F06AFC002804D02046FFF7BD
:10154000E3FF00202063F8BD002F20D004202840B6
:10155000002808D0206B04210843206320684069DC
:10156000084321684861206B00280FD0E807C00FAE
:10157000002806D0F007C00F002802D0204600F057
:1015800045FC2046FFF7C0FF00202063DBE7022078
:101590002840002807D002203040002803D02046F1
:1015A00000F0D6FCCFE700BFCDE710B50446002C15
:1015B00001D1012010BD2D20005D002805D10021A2
:1015C0002C200155204600F00FF824212D20015534
:1015D000204600F099FC0020206320212D20015599
:1015E0002E2001550020E5E7704710B503462E2058
:1015F000C05C202825D1002901D0002A01D101207A
:1016000010BD00BF2C20C05C012801D10220F7E7EB
:1016100001242C20C45400BF59621A855A85002029
:10162000186322242E20C45400BF00242C20C4544C
:1016300000BF18680068012420431C682060002057
:10164000DEE70220DCE7000010B504460A48007817
:1016500001280ADB08480078022806DC06480078E2
:101660000649087001200649087001220249054810
:10167000FFF7BBFF10BD00000000002006000020A7
:10168000070000202C000020FEB504460D4616463B
:101690001F46002001902D20005D20287ED1002DC6
:1016A00001D0002E01D10120FEBD00BF2C20005D25
:1016B000012801D10220F7E701212C20015500BFAC
:1016C0000020206321212D200155FFF747F90190CB
:1016D0002068006802210843216808602684668427
:1016E00050E0608C401E60842069C02835D160695C
:1016F00001280CD1206800680821884329782A4AEB
:10170000515CC907090F0843216808600FE0606950
:1017100002280CD120680068082188432978224AD1
:10172000525C01219143C900084321680860287870
:101730006D1C216848600097002202212046019B11
:1017400000F05EFC002801D00320ADE7206840696E
:10175000022108432168486114E028786D1C216843
:1017600048600097002202212046019B00F048FCBF
:10177000002801D0032097E7206840690221084330
:1017800021684861608C0028ABD120212D200155B3
:1017900000BF00212C20015500BF00E001E0002027
:1017A00082E7022080E700004028000030B50346B1
:1017B0002D20C05C202859D1002901D0002A01D158
:1017C000012030BD00BF2C20C05C012801D10220C7
:1017D000F7E701242C20C45400BFD9611A845A842D
:1017E0000020186321242D20C45400BF00242C2085
:1017F000C45400BF18680068022420431C6820609D
:101800001869C02828D1586901280CD118680068C7
:101810000824A0430C78164D2C5DE407240F2043C8
:101820001C6820600FE0586902280CD11868006815
:101830000824A0430C780E4D2D5D0124AC43E40038
:1018400020431C6820600878491C1C686060D961CE
:10185000588C401E588407E00878491C1C6860605A
:10186000D961588C401E58840020AAE70220A8E7BE
:1018700040280000704700BFFEE7000010B5024896
:10188000FFF7BCF810BD0000840000208200811822
:1018900000BF0A46491E002AFBD17047FFB581B040
:1018A0000D4616461F46002400F096F9019800F0F8
:1018B00001FA00F0D7F9002801D105B0F0BD2846A3
:1018C00000F0F8F900F0CEF9002800D1F5E7002487
:1018D00009E0305D00F0EEF900F0C4F9002800D115
:1018E000EBE7601CC4B2BC42F3DB00F09BF90A20BA
:1018F000FFF7CCFF00BFE0E77047704770477047C5
:1019000010B54B20C00100F05DF810BD704700001D
:1019100010B5002819DA1A4A03071B0F083B9B0869
:101920009B00D2588307DC0EFF23A3409A438B070A
:101930001B0E8407E40EA3401A43114B0407240F27
:10194000083CA408A4001A5118E00E4A03231B0205
:10195000D21883089B00D2588307DC0EFF23A340D4
:101960009A438B071B0E8407E40EA3401A43054BD2
:10197000032424021B198408A4001A5110BD00007E
:101980001CED00E000E100E0704770477047000088
:1019900038B5044608490968C8087D21C900FEF722
:1019A000A9FB6043009000BF00BF0098411E00915A
:1019B0000028F9D138BD000024000020704770478E
:1019C0007047000010B58EB00446342101A8FEF720
:1019D000D1FB00BF2748C068022108432549C860E1
:1019E0000846C06802210840009000BF00BF00BF49
:1019F00020488068042108431E49886008468068A2
:101A000004210840009000BF00BF08200190022080
:101A10000290002004900590089009900120039006
:101A200005200D9001A91448FEF74AFE10200190F0
:101A30000220029005200D9001A90F48FEF740FEFC
:101A40000E480F4908600846446001214902816040
:101A5000402101610021416110218161FFF7A5FD55
:101A6000012208490648FFF7C0FD0720FFF784F967
:101A70000EB010BD000002400018024000040040FB
:101A80002C0000200000002001B50A230122694635
:101A90000148FFF7F9FD08BD2C00002010B500F04B
:101AA00053F8002220210C48FEF751FF002240216C
:101AB0000948FEF74CFF0A20FFF7E8FE012220212B
:101AC0000548FEF744FF0A20FFF7E0FE0022202130
:101AD0000148FEF73CFF10BD001C024000B58DB070
:101AE00000200190402000900120039000200790EA
:101AF00004900890029069460248FEF7E1FD0DB09F
:101B000000BD0000001C024010B500F01DF80022CE
:101B100020210C48FEF71BFF012240210948FEF757
:101B200016FF0A20FFF7B2FE012220210548FEF72A
:101B30000EFF0A20FFF7AAFE002220210148FEF72F
:101B400006FF10BD001C024000B58DB001200190C1
:101B500040200090012003900020079004900890FE
:101B6000029069460248FEF7ABFD0DB000BD0000D3
:101B7000001C024070B505460026FFF7AFFF0A20A3
:101B8000FFF784FE802419E0002220211148FEF78F
:101B9000DEFE0A20FFF77AFE012220210D48FEF723
:101BA000D6FE0A20FFF772FE40210A48FEF7C6FE65
:101BB000012802D13046204306466410002CE3D1B0
:101BC000012D02D1FFF76AFF01E0FFF79DFF3046CC
:101BD00070BD0000001C024010B5FFF7B5FF0022E9
:101BE00020210F48FEF7B3FE012240210C48FEF7EA
:101BF000AEFE012220210A48FEF7A9FE0A20FFF7C7
:101C000045FE002240210648FEF7A1FE0A20FFF70C
:101C10003DFE002220210248FEF799FE10BD000083
:101C2000001C024010B5FFF78FFF002220210C4856
:101C3000FEF78DFE002240210948FEF788FE0122B2
:101C400020210748FEF783FE0A20FFF71FFE01222E
:101C500040210348FEF77BFE0A20FFF717FE10BD68
:101C6000001C024010B5FFF76FFF01224021104811
:101C7000FEF76DFEFFF732FF012220210C48FEF730
:101C800066FE0A20FFF702FE05E0601CC4B2C82C05
:101C900001DD002010BD40210548FEF74FFE002861
:101CA000F3D1002220210248FEF751FE0120F1E786
:101CB000001C024070B50546FFF746FF802409E08E
:101CC00028462040002802D000F008F801E000F08B
:101CD00023F86410002CF3D1002070BD10B5002251
:101CE00020210C48FEF733FE012240210948FEF76F
:101CF0002EFE0A20FFF7CAFD012220210548FEF72B
:101D000026FE0A20FFF7C2FD002220210148FEF72F
:101D10001EFE10BD001C024010B5002220210C4800
:101D2000FEF715FE002240210948FEF710FE0A20AA
:101D3000FFF7ACFD012220210548FEF708FE0A202E
:101D4000FFF7A4FD002220210148FEF700FE10BD90
:101D5000001C024010B5FEF7C3FF10BD00B58DB0EA
:101D6000202105A8FEF706FA0020019002900390BA
:101D700004900120059006900C480088079005A863
:101D8000FFF76EF9002801D0FEF77DFC07200190D7
:101D90000120029000200390049001A8FFF700F8B2
:101DA000002801D0FEF76FFC0DB000BDA0000018A8
:101DB0000B480C4908620C480A4940390862084837
:101DC000401E084908620020064940390860486002
:101DD000881588600020C8600861044988607047E1
:101DE0009966AA55400002400100695A00ED00E0E2
:101DF00070477047704770477047000010B5024841
:101E0000FFF783FB10BD00002C00002070B50446D6
:101E10002E20005D222872D12068406901210843EC
:101E2000216848612069C02842D16069002807D133
:101E300020684068C1B2626A501C6062117047E05D
:101E40006069012817D120684068C5B22D48415DFE
:101E500020680068042210408008814204D1626A30
:101E6000501C6062157033E0E0212E2001550220E5
:101E70002063012070BD6069022829D12068406874
:101E8000C5B22048415D20680068042210408208E5
:101E900001209043814204D1626A501C6062157037
:101EA00016E0E0212E200155022020630120E1E709
:101EB0006069002805D0E0212E2001550120206313
:101EC000D8E720684068C1B2626A501C6062117035
:101ED000608D401E80B2608500280ED120680068A9
:101EE000400840002168086020212E20015520462E
:101EF000FFF7AAFB0020BDE701E00020BAE70220BF
:101F0000B8E700004028000070B504462169A068C9
:101F10000843A1690843216809682D2212019143F1
:101F2000084321680860FFF72DF8A168490A491C99
:101F300048430546606841012846FEF7DBF8401E2D
:101F400080B20121090440182168886170BD000039
:101F500010B504462D20005D21284CD12068406931
:101F60000221084321684861608C411E6184002879
:101F70000DD120680068022188432168086020464E
:101F8000FFF778FC20212D200155002010BD20698D
:101F9000C02828D1606901280DD120680068082177
:101FA0008843E1690978154A515CC907090F08435C
:101FB0002168086010E0606902280DD1206800687F
:101FC00008218843E16909780C4A525C0121914358
:101FD000C900084321680860E169481CE06108788D
:101FE0002168486005E0E169481CE06108782168E3
:101FF00048600020CAE70220C8E70000402800002F
:10200000FFB581B004460D4617460A9E1DE0701CC0
:1020100000281AD0002E05D0FEF7A0FC0499401A23
:10202000B04212D9206800688008800021680860EA
:1020300020212D2001552E20015500BF00212C20EC
:10204000015500BF032005B0F0BD2068006928409D
:10205000A84201D1012000E00020B842D7D00020E2
:10206000F1E77047704700000FB410B503A9044BA7
:10207000044A029800F03CF810BC08BC04B01847B1
:102080005B240000280000202021020C01D0102138
:102090001046020A01D010460839020901D0104644
:1020A000091F820801D01046891E420801D0881EEF
:1020B0007047081A704730B47446641E2578641C53
:1020C000AB4204D3635D5B00E31830BC18471D4688
:1020D000F8E702E008C8121F08C1002AFAD17047C9
:1020E0007047002001E001C1121F002AFBD1704798
:1020F000FFB581B00546002706E025280AD0049ADE
:10210000039990476D1C7F1C28780028F5D138462C
:1021100005B0F0BD002269786D1C10462E2913D140
:10212000697804226D1C2A2909D102996D1C01C904
:10213000029109E00A235843303808186D1C2978A9
:102140000B46303B092BF5D92B78002BDFD0632BC6
:1021500007D0732B10D0049A1846039990477F1C20
:102160002DE002996C460B782370091D0291002125
:1021700061706E46012104E0029940C9029100217C
:10218000C94352070AD5002400E0641C84420DDADA
:102190008C42FADB325D002AF7D107E0002400E030
:1021A000641C8C42FCDB305D0028F9D13F1904E04F
:1021B0003078049A761C03999047641EF8D26D1CFF
:1021C000A2E7F8B50BAC70CC6846057046700223E8
:1021D0006A4621469020FFF761FBF8BD0FB4F0B5C9
:1021E00091B0209F182216A908A8FDF7AAFF1C98F5
:1021F0000E9018A8017D08A8017718A8417D08A8AD
:10220000417718A8817D08A881771E9810902199A0
:102210001F9814220697079105900CA96846FDF7B0
:1022200090FF08A80FC8FFF7CCFF0A20FEF732FA8C
:10223000182216A908A8FDF784FF1C980E9018A86C
:10224000017D08A8017718A8417D08A8417718A842
:10225000817D08A881771E98109014220CA96846E9
:10226000FDF76FFF08A80FC800F0C0F806465248F7
:10227000864201D1012000E000204F4949428E42B0
:1022800001D1012100E000210843002807D00026E9
:102290004A480078012802D149A0FFF7E5FE0E2048
:1022A000384040100300FFF706FF0604162840528E
:1022B00064763046FEF786F80022434B0D910C9071
:1022C000FEF708F80022414B0F910E90FEF702F83E
:1022D00004460D465FE03046FEF774F800223C4BA2
:1022E0000D910C90FDF78EFF0022384B0F910E9050
:1022F000FDF7F0FF04460D464DE03046FEF762F86C
:102300000022344B0B910A90FDF77CFF0022324BE8
:102310000D910C90FDF7DEFF0022304B0F910E90D7
:10232000FDF770FF04460D4635E03046FEF74AF8EB
:1023300000222B4B0D910C90FDF764FF0022234BE4
:102340000F910E90FDF7C6FF04460D4623E0304680
:10235000FEF738F80022234B0D910C90FDF752FF49
:1023600000221A4B0F910E90FDF7B4FF04460D4664
:1023700011E03046FEF726F800221B4B0D910C9021
:10238000FDF740FF0022114B0F910E90FDF7A2FFC9
:1023900004460D4600BF00BF0022134620462946D2
:1023A000FEF738F801D8002425462046294611B00A
:1023B000F0BC08BC04B01847FF7F00000E000020EE
:1023C0006F766572210D0A000070674080842E418F
:1023D00000405F4000404F4000408F4000001440EC
:1023E00000403F4000402F4000401F4038B50020D3
:1023F0000090FFF7F1FB9020FFF75CFCFFF732FC49
:10240000002800D138BD0020FFF754FCFFF72AFC5C
:10241000002800D1F6E7FFF705FCFFF7DDFB912070
:10242000FFF748FCFFF71EFC002800D1EAE7012077
:10243000FFF7A0FB694608700020FFF79BFB0146F1
:1024400068464170FFF7EEFB684600780102684677
:102450004078081804B22046D4E770B504460D460B
:10246000E0B2FFF711FB002070BD10B501210C2078
:10247000FEF78EFC0C20FEF77FFC10BD00B58DB082
:1024800034216846FDF776FE082000900220019076
:1024900004200C90012003900020049007900890E5
:1024A000029069461A48FEF70BF9102000900220AE
:1024B000019004200C9001200390002004900790CC
:1024C0000890029069461248FEF7FAF8114812493E
:1024D00008600020486000210F48816020200E49DC
:1024E00088770E480078482108430D49097849004B
:1024F00008430949C8600121074841610949016150
:102500000020054948770846FEF785FA0DB000BD62
:1025100000180240000C0040840000200900002048
:102520000A00002000093D0000B58FB000BF174829
:102530008068012108431549886008468068C00703
:10254000C00F019000BF00BF00BF08468068022195
:1025500008430E49886008468068022108400190BF
:1025600000BF00BF302002900020039001200690A1
:102570000020099002A90648FEF7A2F80820029060
:1025800002A90448FEF79CF80FB000BD000002400D
:10259000001402400010024092B0FEF7ADFBFFF7BE
:1025A000DDFB00BF9548806804210843934988609B
:1025B0000846806804210840119000BF00BF00BF9A
:1025C0008E48C06808438D49C8600846C068042129
:1025D0000840119000BF00BFFFF7A6FFFEF70EF8FE
:1025E0000AE187480078874908708748007887495A
:1025F0000870874800788749087020218648FEF7D0
:102600009DF9002803D000207D49087002E00120D8
:102610007B49087010218048FEF790F9002803D00C
:1026200000207949087002E0012077490870774856
:10263000007875490978884205D172480078704958
:10264000097888421AD07548FEF7B4F900BF6B4884
:10265000C068042108436949C8600846C06804216D
:102660000840119000BF00BFFFF708FFFFF7FDFE15
:102670000A20FEF70FF80020654908700821684815
:10268000FEF75CF9002803D001206149087002E0E0
:1026900000205F4908705F4800785D4909788842EA
:1026A0000ED05B480078012802D1FFF729F907E036
:1026B00057480078002803D1FFF7E0FEFFF7D5FE6A
:1026C0005848007802282AD11822574909A8FDF74E
:1026D00038FD554880690F905348017F10A801705C
:1026E0005148417F10A841704F48817F10A88170E8
:1026F0004D48006A11908320E42101220592069141
:10270000079014220DA96846FDF71BFD09A80FC804
:10271000FFF764FD0546FDF791FE07462DE04148B1
:102720000078012829D118223F4909A8FDF709FDA1
:102730003D4880690F903C48017F10A801703A48DD
:10274000417F10A841703848817F10A881703648B9
:10275000006A11908320D4210122059206910790EE
:1027600014220DA96846FDF7ECFC09A80FC8FFF775
:1027700035FD0546FDF762FE07462C493846FDF754
:1027800004FD0546FDF732FE044621480078012885
:1027900013D12748007801280FD12002000E2549C7
:1027A00008702004000E48708C7003222248FEF747
:1027B000FDFF00201E4908701EE015480078002823
:1027C0001AD12002010E1D4841742004010E1B483D
:1027D0008174C47400250CE00A212046FDF78AFCB0
:1027E0000446002C04D1681CC1B21448017402E0F4
:1027F0006D1C062DF0DB00BFF3E600000000024078
:102800000A0000200C000020090000200B0000201E
:102810000E0000200D000020001402408400002063
:102820000010024006000020600000200000C842A6
:1028300007000020010000202C000020C70100201C
:102840000001010001000001010000010001010080
:102850000100000100010100000101000100000170
:102860000100000100010100000101000100000160
:102870000001010001000001010000010001010050
:102880000100000100010100000101000100000140
:102890000001010001000001010000010001010030
:1028A0000001010001000001010000010001010020
:1028B0000100000100010100000101000100000110
:1028C0000100000100010100000101000100000100
:1028D00000010100010000010100000100010100F0
:1028E00000010100010000010100000100010100E0
:1028F00001000001000101000001010001000001D0
:1029000000010100010000010100000100010100BF
:1029100001000001000101000001010001000001AF
:10292000010000010001010000010100010000019F
:10293000000101000100000101000001000101008F
:1029400060290000000000202C000000D2200000C0
:102950008C2900002C0000207C040000E2200000F4
:102960000000000000000000000000000000020065
:102970000000000000000000000000000400000053
:0C2980000100000000093D000000000004
:04000005000000C136
:00000001FF
