:020000040000FA
:1000000070060020D9000000491B0000BF1A000044
:1000100000000000000000000000000000000000E0
:10002000000000000000000000000000FD1B0000B8
:100030000000000000000000C91B00000D200000AF
:100040007509000077090000790900007B090000AC
:100050007309000000000000C1200000C52000005E
:10006000451B000000000000FB1B0000000000001A
:10007000C51A000000000000A9200000AD2000000B
:10008000431B000000000000BD200000BF20000056
:1000900000000000C71B0000CB220000411B000035
:1000A000A3080000471B0000C92200000000000058
:1000B000A5080000C51B0000F91B00006F09000027
:1000C0000448854600F0B8FB004800474D2F00006B
:1000D000C046C046700600200448804704480047D8
:1000E000FEE7FEE7FEE7FEE7FEE7FEE76920000029
:1000F000C100000030B50B4601460020202201243B
:1001000009E00D46D5409D4205D31D469540491B4B
:100110002546954040191546521E002DF1DC30BD94
:1001200010B5202A04DB0846203AD040002110BD3B
:100130000B46D340D0402024A21A914008431946D0
:1001400010BD03460B439B0703D009E008C9121FEB
:1001500008C0042AFAD203E00B780370401C491C43
:10016000521EF9D27047D2B201E00270401C491E03
:10017000FBD270470022F6E710B513460A46044644
:100180001946FFF7F0FF204610BD421C0178401CC5
:100190000029FBD1801A704730B505460020034680
:1001A00000E05B1C934205D2EC5CC85C201A01D1D4
:1001B000002CF6D130BD024670B54A40D30FDB07A4
:1001C00040002DD04A002AD0010E140E0002120267
:1001D0000919400A520A8418E50104465443000AEA
:1001E000120A2E045043A4194219200CC543AA1820
:1001F000120C0125AD03521C521912047F3924043C
:1002000000D0521C104301D44000491EC2B20C065B
:10021000C0092018401C4008802A02D003E00020BA
:1002200070BD40084000002900DA0020184370BD6E
:10023000F0B51FB488B00B9909980024484009997B
:10024000C00F490049080991C0070B990090490067
:1002500049080B9109990898A64608431CD00B99A8
:100260000A98084318D0099801244000420D48001C
:10027000410D099824050003000B204309900B98B9
:100280000003000B20430B9050181C49401800221B
:1002900001901446104605E0002001460DB0F0BD67
:1002A000032801DA034600E003239C46C11A0AAE84
:1002B0000AE05F0008ADED5B4F00F75B7D43002770
:1002C000AA187C41491C5B1E6145F2DD410004AB6C
:1002D0005A522104120C0A43240C401C0828DFDB6C
:1002E000019802900099704601910090059B049A34
:1002F0000799069800F066F9D0E700000DFCFFFFB3
:10030000F0B50C465C4085B0E40FE40703944C0064
:100310000026640859009446490802460296224382
:1003200021D062460A431ED06200570D4A000E03D8
:100330002303550D012402462C492405781B1B0B71
:10034000360B401823432643614600901C46501A42
:10035000B44103D30098401C009002E0921800982A
:100360005B41002803DA0020014605B0F0BD002003
:10037000012109050746864611E064461D46141B07
:10038000B54106D36546521BB341744607430C433F
:10039000A646CD0740084908284392185B41054608
:1003A0000D43EAD11046184313D060461946504019
:1003B0007140084306D06046101AB34106D20122AC
:1003C000002306E000220123DB0702E00122D243E2
:1003D0005310009874460105381C6141029C039D2E
:1003E0000019694100F0E1F8BFE70000FD030000DB
:1003F0000EB5C217C10F5040CA0740180021054B67
:100400000293019200910A460B4600F0DBF803B01C
:1004100000BD000033040000410040020122400AF8
:10042000D205090E80187F2901DA0020704796292D
:1004300003DC9622511AC8407047963988407047AD
:10044000C20FD207400040080BD0C10D0723DB01CB
:10045000C91840020905400A1143C2084007114368
:10046000704700200146704710B5002904DB0124C5
:10047000E40740428C412146002B04DB1C4601234B
:10048000DB075242A3418B4200D1824210BD0000E3
:10049000CB0FDB07490010B5490802460A4307D0D5
:1004A0000A0D07240903E401090B121B002A01DCD1
:1004B000002010BDC900440F0C43C100E018D20554
:1004C000801800F031F810BDF0B51FB406460020CA
:1004D00082B005464024019100901BE0019922461C
:1004E0000F463046FFF71CFE049A059B801A99417F
:1004F00010D310461946224600F0B0F9361A8F4143
:100500000197224601200021009F00F0A7F938182A
:100510004D4100902046641E0028DFDC019B0098BE
:100520002946324607B0F0BD002904DA401C4900D4
:1005300001D140084000704770B40024050C05D17B
:100540001024000402D1002921D01124050E01D16C
:1005500000020834050F01D10001241D850F01D1CF
:100560008000A41C002801DB4000641C002908D086
:1005700020252E1B0D46F540A14000D00121294326
:10058000084301061B1B000ADB1D02D5002070BCBE
:100590007047DB05181880180029F8DA401C49005C
:1005A000F5D170BC40084000704710B5002B08DA48
:1005B0000024401C614192185B411A4301D140085C
:1005C000400010BDF0B51FB482B005460C0003D04A
:1005D000084601F08FFE02E001F08CFE203002465A
:1005E00000902146284600F039F9049B059A0446FC
:1005F0000F4618431143084314D0184610431BD02C
:10060000009840210A1A18460599FFF789FD05460A
:100610000E46009A0599049800F020F9084305D089
:10062000012004E02046394607B0F0BD0020C11784
:1006300005430E432C43374300990E986305401A37
:100640007905E40A00220C43FD0A0A3002D5002095
:100650000146E9E70105101969410C9C0D9D00193F
:100660006941FFF7A2FFDFE7F0B5074608465840AB
:1006700087B0C00F049048000E4659004008490852
:10068000BC1A884105D2384631461E4617460B46ED
:1006900002465800400810434DD0300D03904005ED
:1006A0005900400D490D0590401A0290402873DA18
:1006B00018030121000B09050843019004980092DA
:1006C000002806D01146019A49420020904100912D
:1006D0000190029840210A1A0199009800F0BEF892
:1006E00005460C466B4607CB00F0C8F8C0197141AF
:1006F000039A0E0D0023D71756401A467A40164328
:1007000044D0049A002A2DD0029A012A039A15DCBB
:100710001205C01A914101263605001C7141D20F05
:10072000059ED2070093019202962A462346FFF7C0
:1007300049FF07B0F0BD38463146FAE71605234AAF
:100740000F46B218C01AB74101210905001C4F41DC
:1007500000187F41114618187941E20F10436D19B6
:10076000644113E0E2076D0815436408C2071443AF
:10077000039A01261205C01A91413605001C7141E9
:10078000CE07400830434908C01851412A46234645
:10079000FFF70BFFCDE7FFE7049801224000C117E8
:1007A000121A00238B4104983146C417381AA1410C
:1007B000EEE730B40124E407634030BC54E730B4C2
:1007C0000124E407614030BC4EE700000000E0FF78
:1007D0004A0009030123090B1B0519430A4B10B5F5
:1007E000520D9A4202DA0020014610BD064B343306
:1007F0009A4203DC9A1AFFF793FC10BD034BD21800
:1008000000F02CF810BD0000FF030000CDFBFFFF3F
:1008100010B5002904DB0124E40740428C41214645
:10082000002B04DB1C460123DB075242A341994203
:1008300000D1904210BD0000064C0125064E05E097
:10084000E36807CC2B430C3C98471034B442F7D3F1
:10085000FFF73AFCE83300000834000010B5202A06
:1008600004DB0146203A9140002010BD9140202336
:100870009C1A0346E3401943904010BD10B5202A4E
:1008800006DBCB170846203A1041C1170B4306E0A0
:100890000B461341D0402024A21A91400843194628
:1008A00010BD70477047000000B58FB000BF1E48F4
:1008B0008068042108431C49886008468068042138
:1008C0000840019000BF00BF00BF174880680821A2
:1008D000084315498860084680680821084001904F
:1008E00000BF00BF342102A8FFF744FC2020029083
:1008F0000120039005900020069009900A90049032
:1009000002A90A4800F0A0F84020029001200390BC
:1009100005900020069009900A90049002A90348CF
:1009200000F092F80FB000BD00000240001C024031
:100930000268120B120302600B684A681A438B6844
:100940001A43CB681A430B691A434B691A438B69E4
:100950001A43CB691A4302600A69402A04D10A6A21
:1009600042600A6A826101E00A6A42607047704729
:1009700070477047704770477047704710B504461E
:10098000002C01D1012010BD2920005D002805D1D7
:10099000002128200155204600F00CF802212920D2
:1009A0000155211D2068FFF7C3FF012129200155B2
:1009B0000020E8E7704701460868006820221043DD
:1009C0000A68106008680068802210430A68106096
:1009D0000020704710B5044620680069C007C00FAA
:1009E00001214840484000280FD02068006820219D
:1009F00008404009002808D02068406901210843C8
:100A000021684861204600F001F810BD02490978CC
:100A1000491C014A117070471F00002070B5044640
:100A200000F060F906462546681C002802D00548FB
:100A300000782D1800BF00F055F9801BA842FAD3AA
:100A400070BD000028000020F8B50B4600240025EA
:100A500000950022002131E101258D402C461D68C2
:100A600025400095009DA5427ED1056901268E4056
:100A7000B5430561056A01268E40B5430562456AA6
:100A800001268E40B5434562856A01268E40B543F6
:100A90008562856C8F000F26BE40B543856405686E
:100AA00001268E40B5430560456BFF268E40B54359
:100AB0004563056C01268E4035430564C56B4F00C8
:100AC0000326BE40B543C5635D68022D0DD1826C1F
:100AD0004D07EE0E0F25B5401646AE4332464E0783
:100AE000F60E1D6BB5402A4382645D68042D08D163
:100AF000826C4D07EE0E0F25B5401646AE433246CA
:100B000082645D68032D0DD1826C4D07EE0E0F25BA
:100B1000B5401646AE4332464D07EE0E0F25B540A2
:100B20002A4382645D68002D08D102684E07760F63
:100B30000125B5401646AE43324602605D68012D80
:100B40000CD102684E07760FB5401646AE433246CA
:100B50004E07760F0125B5402A4302601D69012D1D
:100B600014D1856B9E6900E09CE035438563426B40
:100B70004E07760F0125B5401646AE4332464E0766
:100B8000760F1D69B5402A43426322E05D69012D5D
:100B900016D1426B4E07760FB5401646AE4332462D
:100BA0004263826B10261546B5432A468263426B28
:100BB00036011546B5432A465D692A43426308E07B
:100BC000426B4E07760F0125B5401646AE433246BE
:100BD0004263456BEDB2002D05D0856B1E69360171
:100BE0003543856303E0856B1026B5438563C26B8F
:100BF0004E000325B5401646AE4332464E009D6872
:100C0000B5402A43C263426803258D401646AE4371
:100C10003246DD688D402A434260026C01258D40DA
:100C20001646AE433246DD698D402A430264426C6B
:100C300001258D401646AE4332461D6A8D402A433B
:100C40004264012636075D683540B54235D10269F8
:100C500001258D401646AE4332465D6A8D402A43DB
:100C60000261026A01258D401646AE4332469D6AF6
:100C70008D402A430262DD6A002D02D0DD6A012D1B
:100C800011D1826A01258D401646AE4332468262FA
:100C9000426A01258D401646AE433246DD6A8D40DC
:100CA0002A43426209E0826A01258D401646AE431E
:100CB000324601258D402A438262491C082900D210
:100CC000CAE6F8BD0246D3680B40002B01D00120D4
:100CD00000E000207047002A01D0C16200E00163FB
:100CE00070470000014800687047000020000020A5
:100CF000002906D00268126804231A4303681A60A8
:100D000005E00268126804239A4303681A6070477A
:100D100030B503460C460225184600F00FF80028AF
:100D200003D01868C06820600125284630BD0168DE
:100D300009680822914302681160704701460868FB
:100D4000006808221040C008704770B50446A57FAF
:100D5000102D03D1204600F07EF802E0204600F07E
:100D600085F870BD70B504460025002C01D1012026
:100D700070BD607F002803D12077204600F06CF81A
:100D800020680068402188432168086000F0A0FACC
:100D900006467D21C900FFF7ADF905462269D1005D
:100DA000D200A81AFFF7A6F90546A06801281DD0B1
:100DB0002068006804210843216808602068806872
:100DC000E16849000843216888606069012806D00D
:100DD0002068806801210843216888600CE0206851
:100DE0008068400840002168886005E0206800684D
:100DF00004218843216808606068002808D0E8B2B0
:100E00002168486120680069012108432168086160
:100E1000FF2191312069884206D22068006840088D
:100E200040002168086005E020680068012108434F
:100E30002168086020680068402108432168086034
:100E40002046FFF774FF0020206202206077012017
:100E5000A06100208CE77047704710B503460C4630
:100E6000186844601846FFF762FF10BD38B50446A5
:100E7000FF2000900C2000F019F96946204600F090
:100E8000B7F80098A0284FD004DC602807D080284D
:100E900076D112E0A8284BD0B828F9D163E0002021
:100EA0004949087049490870012049490870494971
:100EB000087000204849087072E045480078012811
:100EC00015D144480078012811D120684068434971
:100ED000087008460078FF2801DD002008703F48B0
:100EE00000783A49087000203A4908701BE03748FA
:100EF0000078401CFF2802DD00203449087021687A
:100F00004968CAB231490878411C304B19703449DC
:100F10000A54084620300078324908702A48007880
:100F2000401C294908703BE000202949087037E03F
:100F30002A480078284909784018401CFF2804DD19
:100F400000212046FFF789FF0CE023480578681C44
:100F5000214A1070214800782818234A115C204645
:100F6000FFF77BFF1CE01D4800781B4909784018FB
:100F7000401CFF2805DD00212046FFF76EFF0DE035
:100F80000DE015480578681C134A10701348007866
:100F90002818154A115C2046FFF75FFF00E000BFEC
:100FA00000BFFF20009001212046FFF7A1FE204650
:100FB000FFF7BDFE0C20012181400C4A116000BFEB
:100FC00000F080F838BD000014000020120000205E
:100FD0001700002019000020130000201800002036
:100FE0007C000020100000207B01002080E200E057
:100FF000F3B581B005460026002702240A26FFF734
:1010000071FE074600BF28460299FFF781FE04469D
:10101000FFF768FEC01BB04201D2022CF3D0012CB6
:1010200001D10120FEBD0020FCE70000034800685C
:1010300003490978401801490860704720000020E2
:101040002800002010B5032000F004F800F02CF870
:10105000002010BD70B50446104801787D20C00006
:10106000FFF748F8064631460D480068FFF742F89A
:10107000054600F0D3FB002801D0012070BD042CF0
:1010800007D221460020C04300F028F8054804603C
:1010900001E00120F2E70020F0E700002800002036
:1010A0002C000020240000207047000000BFC20672
:1010B000D20E01219140024A116000BF704700002A
:1010C00080E100E000BFC206D20E01219140024A39
:1010D000116000BF7047000000E100E070B50446F9
:1010E0000D462946204600F031FD70BD70B504461E
:1010F0000025022120680840022814D1042120681C
:101100000840042807D169484068000A0002E168E5
:1011100008436649486065480068000A0002A16803
:101120000843624908602078C007C00F002853D0E8
:101130006068012809D15D48806A012109030840DF
:10114000000B002823D1012070BD6068022808D15F
:101150005648C06A402108408009002817D1012064
:10116000F2E76068042809D15048006B01210903A7
:101170000840000B00280AD10120E5E74B48406BEE
:10118000402108408009002801D10120DCE700BF90
:101190004748464940310862464960680843434928
:1011A00048624348401E41494031086200BFFFF792
:1011B00099FD0546606801280FD107E0FFF792FD11
:1011C000401B3D49884201D90320BDE73748406AAA
:1011D0000007000F0128F1D137E0606802280FD125
:1011E00007E0FFF77FFD401B3349884201D9032008
:1011F000AAE72E48406A0007000F0228F1D124E038
:10120000606804280FD107E0FFF76CFD401B2A49F6
:10121000884201D9032097E72448406A0007000F5D
:101220000428F1D111E0606808280ED107E0FFF72B
:1012300059FD401B2049884201D9032084E71B48FF
:10124000406A0007000F0828F1D1042120680840F7
:10125000042807D115484068000A0002E1680843E5
:101260001249486011480068C0B200280BD000F055
:1012700043F846080D480068C1B23046FEF73AFF11
:101280000E49086003E000F037F80C490860606818
:10129000042802D06068082802D10A200849087092
:1012A0000320FFF7D7FE00204EE7000000000240B9
:1012B0009966AA550000695A881300002C00002086
:1012C0002800002001480068704700002C00002022
:1012D00010B508484068002808D0FFF7F3FF44081D
:1012E000044841682046FEF705FF10BDFFF7EAFFFE
:1012F000FBE700000000024000210020244A516A60
:101300000A07120F012A04D0022A36D0042A39D142
:1013100035E01F4A926A1205120D1E4B1B889A4235
:1013200001D11D4828E01A4A926A1205120D194B84
:101330005B889A4201D119481EE0154A926A12054B
:10134000120D144B9B889A4201D1154814E0104AA3
:10135000926A1205120D0F4BDB889A4201D1114897
:101360000AE00B4A926A1205120D0A4B1B899A4237
:1013700001D10D4800E00C4807E00A4805E04B2089
:10138000400202E00120C00300BF00BF7047000020
:1013900000000240A000001800366E014086510196
:1013A0000024F40000127A0000093D0070B50446E4
:1013B00000252078C007C00F00282DD0FC48406AC7
:1013C0000007000F012828D1F948806A012109038C
:1013D0000840000B002804D16068012801D00120DA
:1013E00070BD00BFF348F24940310862072149024D
:1013F000A068084088420AD0A0680840002806D0AB
:1014000020890005000DEC494018E9498862E94847
:10141000401EE7494031086268E0606800283FD01C
:1014200000BFE448E2494031086207214902A06850
:10143000084088420AD0A0680840002806D02089C9
:101440000005000DDC494018D9498862D948401E82
:10145000D7494031086200BF00BF401C0862D44831
:10146000006AD549491C0843D1490862D148401E49
:10147000CF494031086200BFFFF734FC054606E063
:10148000FFF730FC401B022801D90320A8E7C84819
:10149000806A012109030840000B0028F0D025E0F4
:1014A00000BFC448C24940310862C148006A4008D0
:1014B0004000C1490843BE490862BE48401EBC49BD
:1014C0004031086200BFFFF70DFC054606E0FFF75C
:1014D00009FC401B022801D9032081E7B448806A37
:1014E000012109030840000B0028F0D108212068E1
:1014F000084008287DD12069002854D000BFAD499C
:10150000AB4A403211620020A949096BC805C00DE1
:1015100061690843A8490143A54A1163A549491EC9
:10152000A34A4032116200BF00BF491C1162002073
:101530009F49096B0322920211400846218BC9057D
:10154000C90D08439C490143994A11639949491EB1
:10155000974A4032116200BF00BF481C1146086222
:101560009348006A9449091D0843914908629148CB
:10157000401E1146086200BFFFF7B4FB054606E0B7
:10158000FFF7B0FB401B022801D9032028E7884859
:10159000006B012109030840000B0028F0D0012056
:1015A00000F014FB25E000BF824881494031086209
:1015B0007F48006A042188437F4908437C490862C8
:1015C0007C48401E7A494031086200BFFFF78AFB21
:1015D000054606E0FFF786FB401B022801D90320E1
:1015E000FEE67348006B012109030840000B002848
:1015F000F0D1022120680840022876D16C48406A68
:101600000007000F02280BD16948C06A402108403A
:101610008009002869D0E068002866D10120DFE653
:1016200000BF6448624940310862E068022807D17F
:101630005F48006A6049891C08435D49086226E0EA
:10164000E068002808D15A48006A022188435A49B4
:101650000843574908621AE0E068202807D1544837
:10166000006A554920310843514908620FE050484B
:10167000006A02218843504908434D4908620846E0
:10168000006A202188434C49084349490862494877
:10169000401E47494031086200BFE068002812D070
:1016A000FFF720FB054606E0FFF71CFB401B642804
:1016B00001D9032094E63E48C06A402108408009D1
:1016C0000028F1D011E0FFF70DFB054606E0FFF71B
:1016D00009FB401B642801D9032081E63448C06A15
:1016E0004021084080090028F1D1042120680840E9
:1016F00004285CD100BF2F482D494031086289156C
:10170000E069884206D12A48406B2C4908432849A1
:1017100048633FE0E069002817D12548406B01216C
:101720008902884324490843214948630846406B9D
:1017300089158843204908431D4948630846406B82
:101740001F4908431A49486324E001214902E0691E
:1017500088420ED11648406B491088431649084309
:10176000134948630846406B1649084310494863CB
:1017700010E00F48406BFF21013188430E490843B8
:101780000B4948630846406B491588430A4908439A
:10179000074948630748401E05494031086200BFB9
:1017A000E069002820D0FFF79DFA054614E02EE0FE
:1017B000000002409966AA550000695A0001695A62
:1017C0000004695A0002695AFFF78CFA401B11495C
:1017D000884201D9032003E60F48406B40210840AE
:1017E00080090028F0D012E0FFF77CFA054607E0F8
:1017F000FFF778FA401B0749884201D90320EFE53B
:101800000548406B4021084080090028F0D10020A5
:10181000E6E50000881300000000024070B50446B1
:101820002546681E0949884201D901200CE0681E3E
:10183000074948610321081F00F088F90020044986
:10184000886107200861002070BD0000FFFFFF00D5
:1018500000E000E07047F8B504462068056920689C
:1018600006680027042028400746002F12D1E80709
:10187000C00F00280ED0F007C00F00280AD0204665
:1018800000F028FC002804D02046FFF7E3FF0020EA
:101890002063F8BD002F20D004202840002808D065
:1018A000206B0421084320632068406908432168B5
:1018B0004861206B00280FD0E807C00F002806D031
:1018C000F007C00F002802D0204600F003FC20469D
:1018D000FFF7C0FF00202063DBE70220284000283C
:1018E00007D002203040002803D0204600F094FCAE
:1018F000CFE700BFCDE710B50446002C01D1012091
:1019000010BD2D20005D002805D100212C2001559F
:10191000204600F00FF824212D200155204600F02C
:1019200057FC0020206320212D2001552E20015539
:101930000020E5E7704710B503462E20C05C202844
:1019400025D1002901D0002A01D1012010BD00BFFE
:101950002C20C05C012801D10220F7E701242C20B3
:10196000C45400BF59621A855A8500201863222486
:101970002E20C45400BF00242C20C45400BF18687B
:101980000068012420431C6820600020DEE702205C
:10199000DCE7000010B504461148A0421FD11148F1
:1019A0000078802809DB0F490878C117490E09180B
:1019B000C911C901411A0B4A117000200A49087067
:1019C0000A480178074802780078401C054B1870D7
:1019D00007488154012205490148FFF7ACFF10BDBB
:1019E0007C0200201D0000201F0000201C000020A1
:1019F000B003002030B503462D20C05C202859D10B
:101A0000002901D0002A01D1012030BD00BF2C20C7
:101A1000C05C012801D10220F7E701242C20C45426
:101A200000BFD9611A845A840020186321242D2014
:101A3000C45400BF00242C20C45400BF18680068A0
:101A4000022420431C6820601869C02828D15869E6
:101A500001280CD1186800680824A0430C78164DA2
:101A60002C5DE407240F20431C6820600FE05869B8
:101A700002280CD1186800680824A0430C780E4D89
:101A80002D5D0124AC43E40020431C6820600878ED
:101A9000491C1C686060D961588C401E588407E05E
:101AA0000878491C1C686060D961588C401E5884B5
:101AB0000020AAE70220A8E7E8320000704700BF34
:101AC000FEE7000010B50248FFF73FF910BD000027
:101AD000580000208200811800BF0A46491E002AD3
:101AE000FBD17047FFB581B00D4616461F46002456
:101AF00000F0CCF9019800F039FA00F00DFA002856
:101B000001D105B0F0BD284600F030FA00F004FA2B
:101B1000002800D1F5E7002409E0305D00F026FA46
:101B200000F0FAF9002800D1EBE7601CC4B2BC4217
:101B3000F3DB00F0D1F90A20FFF7CCFF00BFE0E7AC
:101B400070477047704770477047000010B5002815
:101B500019DA1A4A03071B0F083B9B089B00D2584F
:101B60008307DC0EFF23A3409A438B071B0E8407D9
:101B7000E40EA3401A43114B0407240F083CA408A9
:101B8000A4001A5118E00E4A03231B02D21883083E
:101B90009B00D2588307DC0EFF23A3409A438B0798
:101BA0001B0E8407E40EA3401A43054B03242402B2
:101BB0001B198408A4001A5110BD00001CED00E0A0
:101BC00000E100E0704770477047000038B50446F8
:101BD00008490968C8087D21C900FEF78BFA6043EF
:101BE000009000BF00BF0098411E00910028F9D16D
:101BF00038BD00002C00002070477047704700007F
:101C000008B500BF1948C068402108431749C8609B
:101C10000846C06840210840009000BF00BF14483B
:101C200014490860002113480161402141610021ED
:101C30008161C161062101620F494162FEF79EFE8A
:101C4000002801D0FEF794FE0F20FFF73BFA002199
:101C50000F20FFF743FA0748FEF7ADFE002801D03A
:101C6000FEF786FE00200549087008BD000002400E
:101C7000001900403004002088FE00001F000020F2
:101C800010B58EB00446342101A8FEF773FA00BFE8
:101C90002A48C068022108432849C8600846C0682D
:101CA00002210840009000BF00BF00BF23488068A9
:101CB00004210843214988600846806804210840BF
:101CC000009000BF00BF0820019002200290002079
:101CD00004900590089009900120039005200D9034
:101CE00001A91748FEF7B0FE1020019002200290D3
:101CF00005200D9001A91248FEF7A6FE11481249D1
:101D00000860084644600121490281604021016168
:101D1000002141611021816103210720FFF7DEF9D5
:101D20000948FFF7E8FD012208490748FFF703FECD
:101D30000720FFF7C7F90EB010BD000000000240F9
:101D400000180240000400407C0200201C0000201B
:101D500010B500F053F8002220210C48FEF7BBFF1D
:101D6000002240210948FEF7B6FF0A20FFF7B2FE25
:101D7000012220210548FEF7AEFF0A20FFF7AAFE48
:101D8000002220210148FEF7A6FF10BD001C0240E2
:101D900000B58DB0002001904020009001200390FC
:101DA0000020079004900890029069460248FEF7D0
:101DB0004BFE0DB000BD0000001C024010B500F04D
:101DC0001DF8002220210C48FEF785FF012240214A
:101DD0000948FEF780FF0A20FFF77CFE0122202140
:101DE0000548FEF778FF0A20FFF774FE0022202145
:101DF0000148FEF770FF10BD001C024000B58DB019
:101E000001200190402000900120039000200790C5
:101E100004900890029069460248FEF715FE0DB046
:101E200000BD0000001C024070B505460026FFF70B
:101E3000AFFF0A20FFF74EFE802419E00022202188
:101E40001148FEF748FF0A20FFF744FE0122202137
:101E50000D48FEF740FF0A20FFF73CFE40210A48EC
:101E6000FEF730FF012802D13046204306466410B9
:101E7000002CE3D1012D02D1FFF76AFF01E0FFF74B
:101E80009DFF304670BD0000001C024010B5FFF7FA
:101E9000B5FF002220210F48FEF71DFF012240213F
:101EA0000C48FEF718FF012220210A48FEF713FF15
:101EB0000A20FFF70FFE002240210648FEF70BFF25
:101EC0000A20FFF707FE002220210248FEF703FF49
:101ED00010BD0000001C024010B5FFF78FFF00226C
:101EE00020210C48FEF7F7FE002240210948FEF7AA
:101EF000F2FE012220210748FEF7EDFE0A20FFF73F
:101F0000E9FD012240210348FEF7E5FE0A20FFF724
:101F1000E1FD10BD001C024010B50024FFF76EFF6C
:101F2000012240211048FEF7D6FEFFF731FF0122C3
:101F300020210D48FEF7CFFE0A20FFF7CBFD05E07C
:101F4000601CC4B2C82C01DD002010BD4021064831
:101F5000FEF7B8FE0028F3D1002220210248FEF748
:101F6000BAFE0120F1E70000001C024070B50546F2
:101F7000FFF744FF802409E028462040002802D0D3
:101F800000F008F801E000F023F86410002CF3D111
:101F9000002070BD10B5002220210C48FEF79BFEEA
:101FA000012240210948FEF796FE0A20FFF792FD24
:101FB000012220210548FEF78EFE0A20FFF78AFD48
:101FC000002220210148FEF786FE10BD001C0240C1
:101FD00010B5002220210C48FEF77DFE0022402192
:101FE0000948FEF778FE0A20FFF774FD0122202140
:101FF0000548FEF770FE0A20FFF76CFD0022202145
:102000000148FEF768FE10BD001C024010B5FFF746
:102010000DF810BD00B58DB0202105A8FEF7AAF877
:1020200000200190029003900490012005900690FA
:102030000C480088079005A8FFF7B8F9002801D0E0
:10204000FEF796FC072001900120029000200390EB
:10205000049001A8FFF74AF8002801D0FEF788FC99
:102060000DB000BDA00000180B480C4908620C48D8
:102070000A49403908620848401E084908620020A1
:102080000649403908604860881588600020C860AB
:1020900008610449886070479966AA55400002406B
:1020A0000100695A00ED00E07047000010B50248D9
:1020B000FEF790FC10BD0000300400207047704710
:1020C0007047000010B50248FFF7C5FB10BD0000C7
:1020D0007C02002070B504462E20005D222872D1BB
:1020E0002068406901210843216848612069C028AF
:1020F00042D16069002807D120684068C1B2626A95
:10210000501C6062117047E06069012817D1206897
:102110004068C5B22D48415D206800680422104027
:102120008008814204D1626A501C6062157033E0FD
:10213000E0212E20015502202063012070BD60693E
:10214000022829D120684068C5B22048415D206836
:10215000006804221040820801209043814204D18B
:10216000626A501C6062157016E0E0212E20015555
:10217000022020630120E1E76069002805D0E0210A
:102180002E20015501202063D8E720684068C1B2A5
:10219000626A501C60621170608D401E80B2608562
:1021A00000280ED1206800684008400021680860BF
:1021B00020212E2001552046FFF7ECFB0020BDE733
:1021C00001E00020BAE70220B8E70000E832000092
:1021D00070B504462169A0680843A16908432168D5
:1021E00009682D2212019143084321680860FFF716
:1021F0006FF8A168490A491C4843054660684101D7
:102200002846FDF777FF401E80B2012109044018DF
:102210002168886170BD000010B504462D20005D66
:1022200021284CD120684069022108432168486177
:10223000608C411E618400280DD120680068022155
:102240008843216808602046FFF738FC20212D20B4
:102250000155002010BD2069C02828D160690128DF
:102260000DD12068006808218843E1690978154A82
:10227000515CC907090F08432168086010E06069D4
:1022800002280DD12068006808218843E169097897
:102290000C4A525C01219143C9000843216808603F
:1022A000E169481CE06108782168486005E0E1695F
:1022B000481CE0610878216848600020CAE70220D5
:1022C000C8E70000E8320000704770470FB410B54F
:1022D00004A9074B02AA039800F0FAF8044602A9E1
:1022E000002000F093FC204610BC08BC04B0184746
:1022F0000D2C00002021020C01D010211046020AF2
:1023000001D010460839020901D01046091F820881
:1023100001D01046891E420801D0881E7047081A55
:10232000704730B47446641E2578641CAB4204D3F5
:10233000635D5B00E31830BC18471D46F8E702E018
:1023400008C8121F08C1002AFAD170477047002040
:1023500001E001C1121F002AFBD17047F0B51FB484
:1023600086B00998089A030D0021024314D0514801
:10237000514A1818504305141198012810981AD082
:10238000281A401C00264D4F4D490096019104909B
:10239000002812DA444211E01198012449A30128CF
:1023A00001D11098C1430698119A84600360C260FD
:1023B00041600BB0F0BD4042E4E704462105002037
:1023C0003F4A001C51410391029012E0E00707D000
:1023D00032463B4601990098FDF72AFF0191009093
:1023E00032463B4610461946FDF722FF06460F4689
:1023F0006410002CEAD10498039B0028029A0999E2
:10240000089806DAFDF714FF019B009AFDF710FF0C
:1024100005E0FDF775FF019B009AFDF771FF04468B
:102420000E460022284BFEF7F3F903D80020C043E4
:10243000014607E00022254B20463146FEF714F9FD
:10244000FEF7C6F9102409E0002C0ADB0A2200235B
:10245000FEF73AF8079B30321A55641E02460A43CB
:10246000F2D11122641C079B121B1C19119B012B1A
:1024700003D0012308430ED10AE0084304D0112001
:1024800010900020119077E71098151A6D1E0BE040
:102490001098824202DD00236D1C03E0824201DAC3
:1024A00000236D1E002BEED0069811998260C1604A
:1024B00030C07EE701FCFFFF104D0000000014401B
:1024C0000000F03F300000000000F0430000E03F5B
:1024D000FFB597B0064600251BE2252876D10024DB
:1024E0002746F749049400E00443761C3278012023
:1024F000203A90400842F7D130782A280ED00222A4
:10250000307801463039092916D804990A235943ED
:10251000303940181443761C0490F1E7189802C82B
:1025200004911890002904DA012040030443484232
:10253000049002200443761C30782E2814D1042005
:1025400004437078761C2A2809D11898761C80C814
:10255000189009E00A214F43303FC719761C3078A4
:10256000014630390929F5D930786C2810D006DCBD
:102570004C281AD068280ED06A2817D104E0742895
:1025800013D07A2812D110E00120400504430CE05A
:102590000121090501E0032109050C4371788142FD
:1025A00003D1012000052418761C761C307866289B
:1025B0000BD013DC58287DD009DC00287BD04528BF
:1025C000F6D04628F4D047281AD1A9E118E06328AC
:1025D00035D0642870D0652812D1A1E170286CD064
:1025E00008DC6728F1D069287DD06E280DD06F28CF
:1025F00006D1BCE073282ED0752873D0782859D026
:102600001A9A199990476D1C82E16002400F0228C6
:1026100009D003280DD00428189801680DD00D604A
:10262000001D189074E11898EA1701680D604A605F
:10263000F6E7189801680D80F2E70D70F0E718983A
:102640006A4601781172001D18900020507202A88D
:102650000090012005E0189802C818900020009111
:10266000C04361070ED5002101E00199491C019189
:10267000B94213DA8142F8DB019A0099895C00299A
:10268000F3D10BE0002101E00199491C0191814245
:10269000FADB019A0099895C0029F5D10199049827
:1026A0001A9B471A21463846199A00F099FA4019A0
:1026B000019903E051E030E115E050E0451807E0F2
:1026C000009800990078491C00911A9A199990472E
:1026D0000198401E0190401CF2D1214638461A9BB9
:1026E000199A12E137E00A2000210090019160025E
:1026F000410F022907D0189A01CA1892C2179446AE
:10270000032908D00AE01898C01DC108C90005C9EE
:102710001891944607E000B2C2179446042902D1EA
:1027200040B2C1178C4600226146944506DA0A463B
:102730000021404291418C462D2102E0210504D523
:102740002B216A461173012103E0E10701D020210A
:10275000F7E7029156E00A200AE0102008E0102076
:1027600000900021042004430191082703E0082081
:102770000021019100906002410F022907D0189AB0
:1027800001CA189200229446032908D008E018983C
:10279000C01DC108C90005C91891944603E080B264
:1027A000042900D1C0B20021029121072AD5317835
:1027B0000D91702906D0009A1021019B4A401A43BE
:1027C00005D00EE040216A461173012108E0614600
:1027D000014306D030216A4611730D9951730221CD
:1027E0000291009A0821019B4A401A430AD161468E
:1027F000014301D1610705D530216A4611730121DA
:102800007F1E02913178582904D02EA10E910DA976
:102810000D910DE030A1F9E76146019B009AFDF7AB
:1028200053FE0E9B8C469B5C0D9A521E0D921370AC
:1028300061460143F0D10D9805A9081A2030019096
:10284000600703D501200004844300E001270198BC
:10285000874201DD381A00E00020019900904118FC
:10286000029809180498401A0490E00306D42146FF
:102870001A9B199A049800F0B3F94519002706E04D
:1028800003A81A9AC05D199990476D1C7F1C029885
:102890008742F5DBE0030CD521461A9B199A049870
:1028A00000F09EF9451904E01A9A302019999047D2
:1028B0006D1C0099481E00900029F5DC1FE0000007
:1028C0000928010030313233343536373839616206
:1028D00063646566000000003031323334353637CA
:1028E0003839414243444546000000000D980D9997
:1028F0000078491C0D911A9A199990476D1C0199FD
:10290000481E01900029F1DC4DE100F059F945190C
:10291000761C3078002800D0DFE528461BB0F0BDDB
:10292000600700D406271898C01DC108C900486870
:102930000A680831C30FDB071891190001D09CA168
:1029400008E0210501D59BA104E0E10701D09AA18F
:1029500000E09AA14300109130785B0865280CD004
:1029600006DC452809D046281DD0472841D141E042
:10297000662818D067283CD13CE00021112F01DBEC
:10298000112000E0781C0191009008A911A8FFF720
:10299000E5FC139905910021119A15927F1C12985C
:1029A0000197009150E00120C007039001200190A1
:1029B00008A9009711A8FFF7D1FC139A1499059262
:1029C0000022119B009212981593059A01920029FA
:1029D00001D0104602E0791C40180190381A01D548
:1029E000019804E04042401E0090781C0190C01BFA
:1029F000029043E0012F00DA01270021112F01DDB1
:102A0000112000E038460191009008A911A8FFF7B5
:102A1000A5FC13990591119A002112981592009125
:102A2000019721070CD40599B94201DB019900E017
:102A30000191012904DD159A491E515C302906D007
:102A4000B84201DA011D05DA0121029115E0019970
:102A5000491EEDE7002805DC009941180091019915
:102A6000091A03E0019A411C914200DD019100998D
:102A7000401A401C02900120C0070390200706D492
:102A800002990198814202DB0020C043029000209D
:102A90006946C87707AF012103980337C907884201
:102AA00024D0022011902B201290039800280CDAD9
:102AB000404203902D20129007E00A210398FDF771
:102AC00019FB30317F1E039039701199481E119007
:102AD0000029F2DC03980028EFD1791E12980870C3
:102AE0003078202108404530BF1E387006A8C01B32
:102AF000C01D039010980078002800D00120019993
:102B000041180298C0170918039809180498401A28
:102B1000401E0490E00306D421461A9B199A04989B
:102B200000F05EF8451910980078002803D01A9A32
:102B3000199990476D1CE00324D521461A9B199AD8
:102B4000049800F04DF845191CE00098002807DBB8
:102B500000990598884203DD1598405C199901E0B9
:102B6000199930201A9A904700986D1C401C0090CB
:102B70000298401E0290002804D11A9A2E2019991A
:102B800090476D1C0199481E01900029DDDC05E08D
:102B900038781A9A7F1C199990476D1C0399481E22
:102BA00003900029F4DC21461A9B199A0498ACE69C
:102BB0002D0000002B00000020000000000000009D
:102BC000F8B5044600251E461746880404D405E0DF
:102BD00039462020B0476D1C641EF9D52846F8BD43
:102BE000FFB50446002581B01E46C80301D5302735
:102BF00000E02027880404D505E038460399B04753
:102C00006D1C641EF9D5284605B0F0BD0A68531C3A
:102C10000B6010707047F8B504460D4616466846BE
:102C20000570467002236A4621469020FEF75AFF3F
:102C3000F8BD0000F7B586B00F463946089A0698E9
:102C4000FFF7E9FF1420FDF7E9FE00F0B1F80646B2
:102C50004D48864201D1012000E000204A49494206
:102C60008E4201D1012100E000210843002800D05C
:102C700000260E20384040100300FFF752FB0604E8
:102C80001628405264763046FDF7B2FB00223F4BD7
:102C900003910290FDF734FB00223D4B0591049017
:102CA000FDF72EFB04460D465FE03046FDF7A0FB26
:102CB0000022384B03910290FDF7BAFA0022344B00
:102CC00005910490FDF71CFB04460D464DE030468F
:102CD000FDF78EFB0022304B01910090FDF7A8FA22
:102CE00000222E4B03910290FDF70AFB00222C4B91
:102CF00005910490FDF79CFA04460D4635E03046F8
:102D0000FDF776FB0022274B03910290FDF790FA26
:102D100000221F4B05910490FDF7F2FA04460D4680
:102D200023E03046FDF764FB00221F4B0391029025
:102D3000FDF77EFA0022164B05910490FDF7E0FAAC
:102D400004460D4611E03046FDF752FB0022174BBA
:102D500003910290FDF76CFA00220D4B059104904F
:102D6000FDF7CEFA04460D4600BF00BF0022134611
:102D700020462946FDF778FB01D800242546204649
:102D8000294609B0F0BD0000FF7F000000706740D9
:102D900080842E4100405F4000404F4000408F4003
:102DA0000000144000403F4000402F4000401F40C2
:102DB00038B500200090FFF769F89020FFF7D6F8AB
:102DC000FFF7AAF8002800D138BD0020FFF7CEF8A1
:102DD000FFF7A2F8002800D1F6E7FFF77DF8FFF72C
:102DE00055F89120FFF7C2F8FFF796F8002800D1B8
:102DF000EAE70120FFF718F8694608700020FFF79E
:102E000013F8014668464170FFF766F86846007897
:102E1000010268464078081804B22046D4E710B58D
:102E200001210C20FEF75AF90C20FEF74BF910BDDA
:102E300000B58DB034216846FDF79CF9082000905C
:102E40000220019004200C900120039000200490A7
:102E500007900890029069461A48FDF7F5FD10208A
:102E600000900220019004200C900120039000208B
:102E7000049007900890029069461248FDF7E4FD1F
:102E80001148124908600020486000210F48816005
:102E900020200E4988770E480078482108430D49C4
:102EA0000978490008430949C86001210748416180
:102EB000094901610020054948770846FDF752FF9E
:102EC0000DB000BD00180240000C0040580000206A
:102ED000050000200600002000093D0000B58FB06D
:102EE00000BF1748806801210843154988600846DB
:102EF0008068C007C00F019000BF00BF00BF084638
:102F00008068022108430E498860084680680221D3
:102F10000840019000BF00BF3020029000200390C5
:102F2000012006900020099002A90648FDF78CFDBB
:102F30000820029002A90448FDF786FD0FB000BDED
:102F40000000024000140240001002401CB5FEF7D1
:102F500079F8FFF75FF800BF6248806804210843F2
:102F6000604988600846806804210840019000BFDD
:102F700000BF00BF5B48C06808435A49C8600846A4
:102F8000C06804210840019000BF00BFFFF7A6FF02
:102F9000FDF78AFCFEF734FE6420FDF73FFD1021AB
:102FA0005148FDF78FFE002801D1012000E00020EC
:102FB0004E49087020214C48FDF784FE002801D1BD
:102FC000012000E000204A49087008214948FDF727
:102FD00079FE002801D0012000E000204649087059
:102FE00008460078012804D14B20C001FEF748FEB6
:102FF00007E041480078002803D1FFF719FFFFF7E9
:103000000EFF6EE03D480078052808DD3A4800785C
:10301000012804D100F08EF80020384908700026FD
:1030200037480078012808D18322D421FFF702FE17
:103030000446FDF72DFA06460CE0314800780228D8
:1030400008D18322E4210120FFF7F4FD0446FDF7B7
:103050001FFA06462B493046FDF7ADF80446FDF74A
:10306000DBF929490860084600680002010E27487C
:103070004174254800880004010E244881742248C8
:1030800001782248C174204800680002000E2049DF
:1030900008701D4800880004000E48701A48007827
:1030A00088701548007801281AD11A48007800283D
:1030B00016D03046FDF7C4F901910090154802780A
:1030C00015A11A48FFF702F90020124908701748A5
:1030D000FDF75BF884B2224614491548FEF78AFCD6
:1030E00000BF8FE7000002400014024005000020EE
:1030F0000600002000100240090000201F000020F0
:10310000100000200000C8420C0000209B0100209D
:10311000000000201B00002041542B41494E256433
:103120003D25342E32666D760D0A00003A000020EF
:103130007C020020F8B55748007857490978401AB2
:10314000032873DB55485449097845182F786E7861
:10315000AC78412F2DD0BB2F1ED0CC2F77D14E482D
:103160000078C01C4C4908704A4800780978401A19
:10317000A04210DB4A4988192246E91CFCF7E1FF0E
:10318000202E03D14648805D4649087042480078A9
:1031900000194149087069E03F480078C01C3E4969
:1031A0000870312E04D103223F494048FEF722FC2B
:1031B0005CE004223EA12846FCF7EEFF00280FD178
:1031C0000424354800780019334908703AA13C4876
:1031D000FFF77CF804223A493448FEF70BFC35E04F
:1031E0000B2238A12846FCF7D7FF00280BD10B246F
:1031F00029480078001928490870012029490870D9
:103200003349087022E00B2232A12846FCF7C4FFA4
:1032100000280DD10B242048007800191E490870A1
:103220000220204908702A4908700FE02BE00EE0C8
:103230000020184908701849087029A12048FFF794
:1032400045F809221E491948FEF7D4FB0EE000207C
:10325000104908701049087021A11948FFF736F885
:10326000092217491148FEF7C5FB00BF00BF0948F6
:10327000007809490978884204D10020054908707E
:103280000549087004E000200249087002490870EE
:10329000F8BD00001D0000201E000020B00300202B
:1032A000B002002010000020000000207C0200205E
:1032B00041540D0A000000004F4B0D0A00000000B1
:1032C0005C04002041542B41494E313D3F0D0A0022
:1032D0001B00002041542B41494E323D3F0D0A0056
:1032E0004552524F520D0A00000101000100000139
:1032F00001000001000101000100000100010100C6
:1033000000010100010000010100000100010100B5
:1033100000010100010000010001010001000001A5
:103320000100000100010100010000010001010095
:103330000001010001000001000101000100000185
:103340000100000100010100000101000100000175
:103350000100000100010100010000010001010065
:103360000001010001000001010000010001010055
:103370000001010001000001000101000100000145
:103380000100000100010100000101000100000135
:103390000100000100010100010000010001010025
:1033A0000001010001000001000101000100000115
:1033B0000100000100010100010000010001010005
:1033C00000010100010000010100000100010100F5
:1033D00000010100010000010001010001000001E5
:1033E000010000010001010008340000000000207D
:1033F000300000003E230000383400003000002080
:10340000400600004E230000000000000000000005
:1034100000020000000000000000000000000000AA
:103420000000000000000000000000000400000098
:083430000100000000093D004D
:04000005000000C136
:00000001FF
